:100000000C9473030C94BA030C94BA030C94BA03C3
:100010000C94BA030C94BA030C94BA030C94BA036C
:100020000C94BA030C94BA030C9473290C94452ACB
:100030000C94331F0C94BA030C94BA030C94BA03B7
:100040000C94BA030C94BA030C94BA030C94BA033C
:100050000C94BA030C949B1F0C94BA030C94BA032F
:100060000C94BA030C94BA030C94BA030C94BA031C
:100070000C94BA030C94BA030C94BA030C94BA030C
:100080000C94BA030C94BA030C94BA030C94BA03FC
:100090000C94BA030C94BA030C94BA030C94BA03EC
:1000A0000C94BA030C94BA030C94BA0338143814A1
:1000B0006A146A14B014D014541654161215AF15DD
:1000C000C015C0152016291654164D16E416E41650
:1000D000F616F616ED16F616F616F616E416E416ED
:1000E000F216F616F616F216B22AD92ACB2BD92A10
:1000F000CB2B252B482BCB2B9E2BAD2B0A00253051
:10010000313662003A200025303258000A722F63DF
:100110002030313233343536373839414243444563
:10012000460A006D63703233303137206465617484
:100130007461636865642121210A006D6370323344
:100140003031372061747461636865642121210A4C
:100150000035001E001F0020002100220050004F2B
:1001600000230024002500260027002D002B00146A
:10017000001A00080015001700015301531C001855
:10018000000C00120013003100296804001600075B
:100190000009000A00000000000B000D000E000F17
:1001A0000033423468E1001D611B000600190005A0
:1001B00000006F006711001000360037003861E55D
:1001C0000035413400E1045000004200000000000E
:1001D000000000520051002F003000015100002AA1
:1001E000002A004D004A006564E300E20029614BEB
:1001F000004E0028002C00000000003A003B003CAC
:10020000003D003E00010001003F0040004100426F
:10021000004300440001001E021F022F0230023181
:10022000020100010052002400250026002502459D
:1002300000010020022102260227023500000000F2
:100240000051002100220023002E020100010022A3
:100250000223022F00300035020100010024021E9B
:10026000001F00200031000100DE5C0100010001E0
:10027000000100000000000000000001003700271E
:10028000002E0001000000CA5CC95C01000100C32F
:100290005C0100C25CCD5C01000100C65CC55C0075
:1002A0000001000100010001000100010001000146
:1002B0000001000100010001000100010001000136
:1002C000000100F000010001000100010001000137
:1002D00000520001000100010001000100F200F1E4
:1002E00000F3000100000000000100500051004F29
:1002F000000100AE00010001000100010001000149
:10030000000100010001000100AC00AB0001000190
:1003100000010001000100F400F5000000000000F1
:10032000000000A900AA00A80001000100000001CF
:1003300000010001000100010001000100010001B5
:100340000001000100B600000044454255473A2034
:1003500064697361626C65642E0A004445425547C6
:100360003A20656E61626C65642E0A00556E6963A1
:100370006F646520696E707574206D6F646520739D
:10038000657420746F3A2025750A00556E69636F95
:10039000646520696E707574206D6F646520696E88
:1003A000697420746F3A2025750A006261636B6C72
:1003B0006967687420737465703A2025750A006255
:1003C00061636B6C696768742064697361626C65F2
:1003D0000A006261636B6C6967687420656E6162B4
:1003E0006C650A006261636B6C6967687420746F86
:1003F00067676C653A2025750A006261636B6C69FA
:100400006768742064656372656173653A20257559
:100410000A006261636B6C6967687420696E63725D
:10042000656173653A2025750A000A002530325847
:1004300020006B6579626F6172645F7265706F72C4
:10044000743A20000A0025303258006B6579626FDB
:100450006172645F7365745F6C65643A2000646503
:100460006C5F6B65795F6269743A2063616E2774B3
:100470002064656C3A20253032580A006164645F5C
:100480006B65795F6269743A2063616E27742061DD
:1004900064643A20253032580A00646F6E652E0A73
:1004A00000626F6F746D61676963207363616E3A98
:1004B000202E2E2E2000290A002575002F002575DC
:1004C000005D2800256400200025640020002564CC
:1004D0000020002564007C0025303258006D6F75C7
:1004E00073656B6579205B62746E7C782079207609
:1004F00020685D287265702F61636C293A205B006B
:100500005B735D004B6579626F6172642073746127
:1005100072742E0A005B575D005B535D005B525D99
:10052000005B445D005B435D000403300000000E8F
:100530000348006F00740044006F00780000001250
:10054000035A002E0050002E005A002E004F002E9D
:100550000000000403090409025B00030100A0FA83
:100560000904000001030101000921110100012219
:1005700040000705810308000A0904010001030087
:10058000000009211101000122C00007058203209B
:10059000000A090402000203000000092111010001
:1005A0000122220007058303200001070503032021
:1005B00000011201100100000008EDFE1DE1010024
:1005C000010203010631FF0974A101097515002616
:1005D000FF009520750881020976150026FF009519
:1005E0002075089102C005010902A10185020901D7
:1005F000A1000509190129051500250195057501B9
:1006000081029501750381010501093009311581C8
:10061000257F95027508810609381581257F95018A
:1006200075088106050C0A38021581257F9501752C
:10063000088106C0C005010980A10185031A810057
:100640002A8300160100260300950175108100C061
:10065000050C0901A10185041A01002A9C0216015A
:1006600000269C02950175108100C005010906A1B4
:10067000018505050719E029E7150025019508758D
:100680000181020507190029EF1500250195F07574
:100690000181020508190129059505750191029549
:1006A0000175039101C005010906A101050719E0C3
:1006B00029E7150025019508750181029501750846
:1006C00081010507190029FF150026FF0095067511
:1006D0000881000508190129059505750191029504
:1006E0000175039101C011241FBECFEFDAE0DEBF18
:1006F000CDBF04B603FE27C0809187029091880287
:10070000A0918902B0918A028730904BA740B04BEC
:10071000D1F41092870210928802109289021092EE
:100720008A0214BE84B7877F84BF0FB6F894A89559
:1007300080916000886180936000109260000FBE1D
:10074000E0E0F8E3099511E0A0E0B1E0E0E9F9E5C7
:1007500002C005900D92A232B107D9F722E0A2E2C1
:10076000B1E001C01D92A738B207E1F70E949326BD
:100770000C94C62C0C940000FF93EF93E09122019F
:10078000F0912301309709F00995EF91FF910895B9
:10079000FC018591803011F0EFDFFBCF0895FF273A
:1007A000E0E230E247FF0CC0419597FF09C0EDE25F
:1007B0006095709580959095611D711D811D911DAD
:1007C00027FF02C0219530E350E2AA27660F771F6A
:1007D000881F991FAA1FA41710F0A41B63955A9590
:1007E000A9F7AA3008F0A95FA05DAF93F395611552
:1007F00071058105910541F7ED3211F4EF93F39501
:10080000F21718F43F93F395FBCF8F91B5DFFA956C
:10081000E1F70895E991F9918591803021F08532D1
:1008200019F0AADFF9CF089520E0E89455915532E8
:10083000C1F3503311F4689455915A3348F450532E
:1008400090F3220F022E220F220F200D250FF4CF3E
:100850000EF4219589919991533619F3533729F163
:10086000533559F1BC0188279927E8945C3621F467
:100870008991999168945591543639F446EF7EF0F8
:1008800077FF0DC08FEF9FEF0AC055374AE039F070
:10089000583540E121F0523642E009F00895FF93C7
:1008A000EF937DDFEF91FF91B7CFFF93EF93FC01C3
:1008B00081918030B9F360DFFBCFFF93EF9368DF66
:1008C000F1CFDF93CF93CDB7DEB72596A3DFCF91DE
:1008D000DF91089580B38C7080BB81B38C7081BB35
:1008E0000C94D90684B1807F84B985B18F6085B9B5
:1008F0008AB1837F8AB98BB18C608BB93E98469A56
:100900000C941F07089508950C9483040E946A04B0
:100910000E947204E8E7F1E084E291E01192119202
:1009200020E030E0DC01A20FB31F1C922F5F3F4F8D
:100930002E303105B9F70E9621E08837920771F70E
:100940000C9466080E946A040E947204E8E7F1E0D1
:1009500011821082138212821582148217821682EB
:10096000118610861386128608959EE0899FB00135
:10097000112420E030E040E050E0A1E0B0E0F901D7
:10098000E60FF71FEC5DFE4F9081992319F091500F
:10099000908309C0CD01022E02C0880F991F0A94CE
:1009A000E2F7482B592B2F5F3F4F2E30310539F797
:1009B000CA010895CF932EE0629FB001112420E078
:1009C00030E0A1E0B0E0C5E0AD01022E02C0440F6E
:1009D000551F0A94E2F748235923452B31F0F901BA
:1009E000E60FF71FEC5DFE4FC0832F5F3F4F2E30A9
:1009F000310551F7CF910895CF92DF92EF92FF9298
:100A00000F931F93CF930E94FB0688E7C82E81E0C7
:100A1000D82EC0E0C33091F038F4C13091F0C2302C
:100A200099F4859A8D9812C0C43029F0C53061F4CC
:100A3000809A88980BC0819A899808C0849A8C986B
:100A400005C0869A8E9802C0879A8F988C2F0E9434
:100A5000DD0680EA8A95F1F78C2F0E94B5047C01AF
:100A60000E945507282F30E0369903C080E890E0B7
:100A700002C080E090E04B9903C000E011E002C0AA
:100A800000E010E0082B192B4A9903C080E092E0A7
:100A900002C080E090E0082B192B1B9903C040E0B6
:100AA00054E002C040E050E0042B152B1A9903C01B
:100AB00060E078E002C060E070E0062B172B199927
:100AC00003C080E090E102C080E090E0082B192B89
:100AD000189903C040E050E202C040E050E0F60147
:100AE00080819181042B152B022B132B0E211F21AA
:100AF000E094F094E822F9220E291F296C2F802718
:100B000091270E94DA04F601019311936F010E946C
:100B10006A04CF5FC63009F07DCF0E94720881E081
:100B2000CF911F910F91FF90EF90DF90CF9008959C
:100B3000E82FF0E0EE0FFF1FE858FE4F8081918113
:100B40000895CF92DF92EF92FF920F931F93CF936E
:100B5000DF938CE091E00E94C80388E7E82E81E0F3
:100B6000F82EC0E0D0E097E0C92E91E0D92E0EEF2C
:100B700010E0DF93CF93DF92CF920E94610484E074
:100B800091E00E94C803F701819191917F010E9439
:100B9000571D9F938F931F930F930E9461048CEFB7
:100BA00090E00E94C80321968DB79EB708960FB6B5
:100BB000F8949EBF0FBE8DBFC630D105D1F6DF9130
:100BC000CF911F910F91FF90EF90DF90CF900895FC
:100BD0001092B9008CE08093B8000895EF92FF92D4
:100BE0000F931F93CF93DF93182FEB011092BC004C
:100BF00084EA8093BC000E94651F7C019091BC0038
:100C000097FD0EC0CF3F8FEFD807C1F30E94651F3D
:100C10008E199F098C179D0788F38EEF9FEF2EC0CA
:100C20009091B900987F983041F09091B900987FE9
:100C3000903119F08FEF9FEF21C01093BB0084E833
:100C40008093BC000E94651F8C019091BC0097FDB1
:100C50000CC0CF3F8FEFD807C1F30E94651F801BE8
:100C6000910B8C179D0788F3D8CF8091B900887FAE
:100C7000883111F08034F1F680E090E0DF91CF917F
:100C80001F910F91FF90EF9008950F931F93CF93B3
:100C9000DF93EB018093BB0084E88093BC000E944B
:100CA000651F8C019091BC0097FD0EC0CF3F8FEF68
:100CB000D807C1F30E94651F801B910B8C179D07FD
:100CC00088F38EEF9FEF0CC02091B900287F81E060
:100CD00090E0283211F480E090E09195819591099F
:100CE000DF91CF911F910F9108950F931F93CF9391
:100CF000DF93EC0184E88093BC000E94651F8C01A7
:100D00009091BC0097FD0EC0CF3F8FEFD807C1F385
:100D10000E94651F801B910B8C179D0788F38EEF37
:100D20009FEF03C08091BB0090E0DF91CF911F91B6
:100D30000F91089584E98093BC0008951092840176
:100D40000E94E8052FEF83ED90E321508040904012
:100D5000E1F700C0000080E008950F931F93CF9348
:100D6000DF931F92CDB7DEB7909184019923D1F024
:100D7000062F182F64E670E080E40E94EE058111D2
:100D80000CC064E670E0812F0E944506811105C009
:100D900064E670E0802F0E94450689830E949A06CF
:100DA000898101C080E00F90DF91CF911F910F9159
:100DB00008956FE381E00C94AD0661E070E001C03E
:100DC000660F8A95EAF7609581E00C94AD066FE7AF
:100DD00080E00E94AD066FE782E00E94AD066FE7FB
:100DE0008CE00E94AD066FEF81E00E94AD0660ECE2
:100DF00083E10C94AD0664E670E080E40E94EE05A9
:100E0000811110C00E949A0680918401811116C040
:100E100081E0809384010E94E7060E94D4168BE350
:100E200091E00AC080918401882341F010928401EE
:100E30000E94D41683E291E00C94C80308950E94A6
:100E40009E060C94FB060F931F93CF93DF93909114
:100E50008401992321F18B01D82F64E670E080E4AE
:100E60000E94EE05C82F811116C064E670E08D2F38
:100E70000E944506C82F81110EC064E670E081E42F
:100E80000E94EE05C82F811106C084E690E00E9402
:100E90007506F80180830E949A068C2F01C080E0BD
:100EA000DF91CF911F910F910895CF93DF931F9200
:100EB000CDB7DEB71982BE016F5F7F4F82E10E941E
:100EC000230789810F90DF91CF910895279A2F985A
:100ED000259A2D9A269A2E9A249A2C9A259A2D98FC
:100EE0002FEF80E792E0215080409040E1F700C072
:100EF0000000269A2E982FEF80E792E02150804044
:100F00009040E1F700C00000249A2C982FEF80E772
:100F100092E0215080409040E1F700C00000259A07
:100F20002D9A2FEF80E792E0215080409040E1F72A
:100F300000C00000269A2E9A2FEF80E792E0215001
:100F400080409040E1F700C00000249A2C9A279A34
:100F50002F9A259A2D98269A2E98249A2C982FE726
:100F600082E490E1215080409040E1F700C0000011
:100F7000279A2F98259A2D9A269A2E9A249A2C9A57
:100F800008950E9466070C9482049C013A952115ED
:100F90003F4138F5DC01AA27B270AC0144275470F8
:100FA0009C012227387094FF0FC090FF02C080E19F
:100FB00001C080E0AB2B09F08062452B09F0806412
:100FC000232B69F080680BC0892F8170AB2B09F04F
:100FD0008260452B09F08460232B09F08860FB01B7
:100FE00009940895CF93DF93EC01805E91090897EF
:100FF00010F0209719F468EF73E102C06CEA76E113
:10100000CE010E94C5078C2FDF91CF910C945F1207
:10101000CF93DF93EC010E947D13CE01805E910996
:10102000089710F0209719F46FEF73E102C063EB9B
:1010300076E1CE01DF91CF910C94C507CF93DF937A
:10104000EC010E94F207CE01DF91CF910C940808C9
:1010500081E0089581E008950C942A081F93CF93AE
:10106000DF9300D000D01F92CDB7DEB749835A83FB
:1010700020919C0189819A81211112C0662349F037
:101080000E94091C182F682F89819A810E94AE1B2B
:1010900003C00E94DD1B182F69817A81812F04C053
:1010A0000E94091C69817A810F900F900F900F9018
:1010B0000F90DF91CF911F910C942E09FC0140817C
:1010C00051816281738184810C942E080E94711D6C
:1010D000811102C00E94241E0E94A80E0E94250CAD
:1010E0000C94C1070E94A70E0C948404282F2F7023
:1010F00041F0822F90E02A3010F44D960895069723
:10110000089587E290E0089508950C94840881E0A2
:1011100008950C948708CF93C82F0E9485088C2FC0
:101120000E948908CF91089508950E94D4160E94C4
:1011300094082FEF84E39CE0215080409040E1F739
:1011400000C000000C94C11F0F931F93CF93DF9337
:101150008C010E945E08EC01B8010E942C088823D3
:1011600009F471C0B801CE010E94C20C882309F4B1
:101170006AC0B801CE010E94270F882309F463C01A
:10118000B801CE010E94680F882309F45CC0F80101
:101190008281882339F1C1308CE5D80759F0CE3DE2
:1011A000ECE5DE07E1F0C115FCE5DF07D9F40E94AC
:1011B000950849C080913902C82FC095C170C0FB05
:1011C00080F980933902CC2329F08BE593E00E94CB
:1011D000C80339C089E493E00E94C80335C00E9467
:1011E000241E31C0C631DC4539F50E94891C282FE8
:1011F000F80182814091000150910101882379F02A
:101200002A7A91E009F490E090938501911102C04F
:1012100069E201C065E3CA010E94B21E0AC0809162
:101220008501811102C069E201C065E3CA010E9423
:10123000BD1E0E94D81C07C0C801DF91CF911F912D
:101240000F910C942808C0E08C2FDF91CF911F9153
:101250000F91089580E090E0089508959EE0799FB1
:10126000F001112494E5899FE00DF11D1124E60F92
:10127000F11DEE0FFF1FEF5AFE4F859194910895D7
:10128000880F991FFC01E459FC4F859194910895B2
:10129000CF93DF930E942E090E94390BEC01811538
:1012A00021E5920708F042C0811560E5960708F035
:1012B0002FC1883E910500F5803E910508F0D5C10B
:1012C000883A910570F4853A910508F0A4C0813000
:1012D000910509F4CAC108F47BC1049708F0C5C19F
:1012E00077C18F3B910508F4A1C0803C910508F4BB
:1012F0006FC1805C9109FBC0C11580E3D80780F401
:10130000C11590E2D90708F0F0C0C03FD10508F43C
:101310005FC1CF3FD10511F008F0A7C1D065A5C1CD
:10132000C11520E4D20708F0F0C0E5C0811569E5D9
:10133000960760F5C11588E5D80708F035C1C115D5
:1013400094E5D90778F4C11523E5D20708F011C157
:10135000C11562E5D60708F0F6C0DC2FCC27C16FB7
:10136000D06A83C1C11585E5D80708F418C1C11535
:1013700096E5D90708F02CC18C2F0E94CD0B8F71F8
:10138000C82FD0E0DC2FCC27D0626FC18D3B2CE57D
:10139000920709F414C1E0F4CB3B8CE5D80709F4BB
:1013A00008C108F009C1C1152AE5D20708F010C12B
:1013B0008C2F8F700E94CD0B94E0D695C7959A958F
:1013C000E1F7CF70D0E0DC2FCC27D069C82B4DC11E
:1013D000803C9C4509F4F9C0C13C8CE5D80760F419
:1013E000CE3B9CE5D90709F4EDC0CF3BDC4509F0C5
:1013F000EFC0C0E0D2ED39C1CE01905681159042C8
:1014000008F0E6C08D2F8F710E94CD0BDD27D062D2
:101410008F71D82B2AC1853A910509F4DCC0863A30
:10142000910509F0DBC0C2E8D0E41FC1883A9105FC
:1014300009F4D7C0893A910509F4D6C08A3A9105D2
:1014400009F4D5C08B3A910509F4D4C08C3A9105C2
:1014500009F4D3C08B3B910509F4D2C08C3B9105B4
:1014600009F4D1C08D3A910509F4D0C0803B9105B3
:1014700009F4CFC08E3A910509F4CEC08F3A910598
:1014800009F4CDC0813B910509F4CCC0823B9105A4
:1014900009F4CBC0833B910509F4CAC0843B910594
:1014A00009F4C9C0853B910509F4C8C0863B910584
:1014B00009F4C7C0873B910509F4C6C0883B910574
:1014C00009F4C5C0893B910509F4C4C08D3B910561
:1014D00009F4C3C08E3B910509F4C2C08A3B910553
:1014E00009F4C1C0C0E0D4E4C0C0CE019F700E9426
:1014F0004009EC01BAC0CE019927D3FF03C0EC012B
:10150000D86CB3C0EC01D06CB0C0DF70D06AADC095
:10151000837021E030E002C0220F331F8A95E2F78A
:101520003C68CE0174E0969587957A95E1F78370D3
:10153000382BCF70C695C69580E2C89FE001112474
:10154000C22BD32B92C04C2F4695469590E2499FD3
:10155000A0011124C370DD2721E030E0C90102C0E1
:10156000880F991FCA95E2F7EC01C42BD52BDC68D4
:101570007CC04C2F4695469580E2489FA0011124DF
:10158000C370DD2721E030E0C90102C0880F991F38
:10159000CA95E2F7EC01C42BD52BDA6866C0DC2FC4
:1015A000CC27C46FD06A61C0DC2FCC27C06FD06A53
:1015B0005CC0C0E0D4ED59C0C0E0D5ED56C0C0E07D
:1015C000D1ED53C0C0E0D0ED50C0C0E0D3ED4DC070
:1015D000C0E0D0E04AC0C1E8D0E447C0C3E8D0E4EE
:1015E00044C0C2EED4E441C0C9EED4E43EC0CAEE69
:1015F000D4E43BC0C5EBD4E438C0C6EBD4E435C07A
:10160000C3EBD4E432C0C4EBD4E42FC0C7EBD4E4C2
:101610002CC0CCECD4E429C0CDECD4E426C0C3E883
:10162000D5E423C0CAE8D5E420C0C2E9D5E41DC092
:10163000C4E9D5E41AC0C1E2D6E417C0C3E2D6E4D7
:1016400014C0C4E2D6E411C0C5E2D6E40EC0C6E2BE
:10165000D6E40BC0C7E2D6E408C0CFE6D4E405C0A8
:10166000C0E7D4E402C0CAE2D6E4CE01DF91CF9154
:1016700008958238910569F1B0F48133910509F438
:101680006DC048F48932910509F463C08A3291052E
:1016900009F469C008958533910509F455C089336B
:1016A0009105B9F00895833E910569F138F4803EC3
:1016B0009105B1F0823E910509F10895863E9105AC
:1016C000A9F1873E9105B9F1843E910509F064C006
:1016D00023C02091780220FD4FC021FD4DC0089508
:1016E0008091780280FD44C08091790280FF44C0DF
:1016F0008091780284FD42C083EE4DC080917802D3
:1017000082FF38C0F5CF8091780282FD33C080918E
:10171000790280FD31C0ECCF8091790281FF32C027
:101720008091780284FD2AC087EE35C080917802CE
:1017300083FF26C0F5CF8091780283FD21C0809180
:10174000790281FD1FC0ECCF8091780285FD1CC01D
:101750001DC08091780285FD19C016C08091780265
:1017600086FD16C017C08091780286FD13C010C098
:1017700089E311C082EE0FC080EE0DC080E00BC087
:1017800086EE09C084EE07C089E205C085E303C088
:101790008AE201C081E390E008959091780292FF7F
:1017A0000DC0282F2871283019F4877F846006C067
:1017B000282F2471243011F48B7F886093FF0DC093
:1017C000282F2871283119F4877E846106C0282FBC
:1017D0002471243111F48B7E88612091790220FFDD
:1017E0000DC0382F3871383019F4877F816006C0FA
:1017F000382F3171313011F48E7F886021FF0DC098
:10180000282F2871283119F4877E816106C0282F7E
:101810002171213111F48E7E886194FD877E0895B7
:10182000CF93DF9397FF0DC0FB012281222349F064
:10183000EC010E94640CCE019F770E94A50C0E94CF
:101840008E0C81E0DF91CF9108958CE090E00E94B2
:10185000842C90E0A0E0B0E080936C0290936D0245
:10186000A0936E02B0936F028091390280FF0EC088
:1018700080916C021F928F938BE893E09F938F93DC
:101880000E9461040F900F900F900F900895609147
:101890006C028CE090E00C94922C80936C020E947D
:1018A000470C8091390280FF0EC080916C021F921C
:1018B0008F938CE693E09F938F930E9461040F9027
:1018C0000F900F900F9008950E94891C80937002D2
:1018D0000E949C1C80916C02813071F048F0823033
:1018E00081F08430A1F486EE0E94E51388E10DC0FA
:1018F00082EE0E945F120BC088E193E00E941E08F6
:1019000006C082EE0E945F1287E50E94E5138FE316
:101910009CE90197F1F700C00000089580916C02E6
:10192000813039F040F0823031F0843051F488E277
:1019300006C08CE204C082EE0E947D1302C00E94A9
:10194000E513809170020C94991C0F931F93CF9311
:10195000DF938C01CCE0D0E0C8010C2E02C096953C
:1019600087950A94E2F78F700E9476080E94E5132B
:101970002497CC3F8FEFD80779F7DF91CF911F9154
:101980000F9108950F931F93CF93DF93EC018B0179
:10199000FB018281882301F1C33EFCE5DF07B9F03A
:1019A00050F4C13EECE5DE0781F0C23EFCE5DF0706
:1019B00099F481E00FC0C43E8CE5D80751F0C53ED4
:1019C000ECE5DE0749F484E005C080E003C082E076
:1019D00001C083E00E944D0CB801CE01DF91CF9190
:1019E0001F910F910C94100C0E94711D811102C067
:1019F0000E94241E0E94AC1D80937102282F269500
:101A00002695269530E02430310524F087708861D2
:101A1000809371028091710280FF04C08695869543
:101A2000869501C080E00C944B0E20917102822FAC
:101A3000869586958695482F50E04330510554F49D
:101A40008F5F982F990F990F990F822F8770892B8D
:101A500080937102809171028160809371020E9473
:101A6000B01D8091390280FF11C08091710286956E
:101A7000869586951F928F9382E194E09F938F9332
:101A80000E9461040F900F900F900F90809171024F
:101A90008695869586950C944B0E80917102982FB1
:101AA000969596959695A1F0915E990F990F990F3D
:101AB0008770892B80937102887F91E009F490E010
:101AC0008091710290FB80F9809371020E94B01D99
:101AD0008091390280FF11C08091710286958695B0
:101AE00086951F928F938AEF93E09F938F930E9426
:101AF00061040F900F900F900F9080917102869566
:101B0000869586950C944B0E8091710280FD1FC0C6
:101B1000816080937102813019F489E080937102B1
:101B2000809171020E94B01D8091390280FF08C02F
:101B300082ED93E09F938F930E9461040F900F902A
:101B4000809171028695869586950C944B0E08952A
:101B50008091710280FF14C08E7F809371020E9479
:101B6000B01D8091390280FF08C08FEB93E09F93F6
:101B70008F930E9461040F900F9080E00C944B0EA5
:101B80000895CF93C0917102C1708091390280FF96
:101B90000CC01F92CF9384EE93E09F938F930E948B
:101BA00061040F900F900F900F90CC2319F0CF91FC
:101BB0000C94A80DCF910C94840D90917102892FF3
:101BC0008695869586958F5F8F719770843038F4EF
:101BD000880F880F880F892B8093710202C0909321
:101BE000710280917102887F91E009F490E0809108
:101BF000710290FB80F9809371020E94B01D809168
:101C0000390280FF11C08091710286958695869574
:101C10001F928F938BEA93E09F938F930E946104AE
:101C20000F900F900F900F9080917102869586957E
:101C300086950C944B0E843008F083E0880F880F53
:101C4000880F909171029770892B80937102887F21
:101C500091E009F490E08091710290FB80F980930B
:101C600071020E94B01D80917102869586958695BD
:101C70000C944B0EE82FE295EF70F0E032A1282F84
:101C80002F7081E090E001C0880F2A95EAF78095D7
:101C9000832382A30895CF92DF92EF92FF92843044
:101CA00030F4811105C090918000977F04C083E0DB
:101CB00090918000986090938000282F30E0AFEFE3
:101CC000BFEF0E946A2C23E030E040E050E00E9429
:101CD000422C2C3784E138074105510530F4C90105
:101CE00069E070E00E941A2C29C0DA01C9018A500B
:101CF000974DAF4FBF4F6627782F892F9A2F25EF2B
:101D000038E241E050E00E94422C69017A01CA01A8
:101D1000B9010E94FE2B9B01AC01C701B6010E94D4
:101D2000FE2BBB27A92F982F872F009721E0A20712
:101D3000B10511F0BC0102C06FEF7FEF70938D0011
:101D400060938C00FF90EF90DF90CF9008950895FE
:101D5000279A87E30E943A0E8AE08093800089E107
:101D6000809381008FEF9FEF909387008093860090
:101D70000C94F40C0F931F93CF93DF93C62FD42FA3
:101D8000022FFC0182818823C9F0609388010E94A0
:101D9000651F909387018093860180E28C0F8830C5
:101DA00008F050C0C77081E001C0880FCA95EAF7FB
:101DB000DF91CF911F910F910C94F813109188012E
:101DC000161330C080918601909187010E94711F87
:101DD000883C910538F5C0E2CD0F1D17B9F080E2BF
:101DE000810F883040F4177081E001C0880F1A9588
:101DF000EAF70E94FF13C83048F481E09D2F9770E6
:101E000001C0880F9A95EAF70E94F813802F0E946C
:101E1000E513C830B8F4D77081E001C0880FDA95B7
:101E2000EAF70AC080E28C0F883060F4C77081E066
:101E300001C0880FCA95EAF7DF91CF911F910F91EA
:101E40000C94FF13DF91CF911F910F9108959C0186
:101E5000CB01233F4CE53407F9F078F4283DFCE54D
:101E60003F07B9F0293D4CE5340711F1273D3C45CA
:101E700031F526E241EE61EE1EC0253FFCE53F074D
:101E800099F070F0263F3C45D1F427E245EE66EE2E
:101E900012C027E245EE0EC026E241EE60EE0BC016
:101EA00027E245EE64EE07C026E241EE62EE03C093
:101EB00028E241E065EE0E94BA0E80E00895FC0140
:101EC0008281882319F010928801089581E0089595
:101ED000CF93DF93EC01FB018281882309F41FC1BA
:101EE000C230FCE5DF0708F41BC1C6319CE5D90709
:101EF00038F09E012A5F3C452930310508F010C1B9
:101F00000E948E1D9093790280937802C031ECE597
:101F1000DE0709F4C3C008F041C0C8308CE5D8071B
:101F200009F49AC0F0F4C430ECE5DE0709F487C088
:101F300068F4C2308CE5D80709F477C0C330DC45BB
:101F400009F0E3C080917802826076C0C630ECE58B
:101F5000DE0709F46EC008F07BC0809178028860CB
:101F60006BC0CC308CE5D80709F485C068F4CA3062
:101F7000ECE5DE0709F474C008F079C00E94D416BD
:101F800080917802806858C0CE308CE5D80709F47B
:101F900076C008F07FC0809178028BC0CB3FECE523
:101FA000DE0709F44FC018F5C3318CE5D80709F4F2
:101FB0007DC078F4C131ECE5DE0709F473C0C231AD
:101FC000DC4509F0A2C00E94D416809178028F7778
:101FD00033C0C5318CE5D80709F472C008F486C057
:101FE000CA3FDC4509F091C0809179023EC0CF3FE5
:101FF000FCE5DF0709F45FC058F4CD3F9CE5D90745
:1020000009F444C008F43FC08091790282602DC079
:10201000C130FDE5DF0709F475C008F45DC0C230CA
:10202000DD4509F072C080E06EC080917802816069
:1020300003C08091780280618093780266C08091AD
:10204000780211C0809179028260809379025DC02C
:10205000809178028062F0CF809178028064ECCF2A
:102060008091780288608460E7CF8160EECF8091B4
:1020700078028E7FE1CF809178028D7FDDCF8091D5
:102080007802877FD9CF8091790218C08091790238
:102090008D7FDBCF809178028F7ECECF80917802CA
:1020A0008F7DCACF809178028F7BC6CF80917802D6
:1020B000877F8B7FC1CF809179028D7F8E7FC5CF47
:1020C0008091780282FB222720F991E0922790FBF1
:1020D00082F990FB83F9B0CF80917902982F909587
:1020E00091708E7F892B90FB81F9AFCF0E94D4161F
:1020F0008091780287FB222720F991E0922790FBBC
:1021000087F99ACF81E00E94261E809178029091F3
:1021100079020E949F1D0E94D41680E001C081E0D8
:10212000DF91CF91089590938E0180938D01089552
:10213000E0918D01F0918E01309721F00190F081B6
:10214000E02D099480E00895EF92FF921F93CF93C2
:10215000DF93FC01A0918D01B0918E01109709F4DD
:1021600042C080911101882341F08091780287FF5D
:1021700004C08081818385E08083EF011296ED9118
:10218000FC911397CE0109958091390282FF2BC0F3
:1021900080FF04C082E394E00E94C80318E08CE250
:1021A000E82E84E0F82E8091390280FF0BC08881F0
:1021B0001F928F93FF92EF920E9461040F900F90F5
:1021C0000F900F90115021961111EDCF809139028F
:1021D00080FF09C08AE294E0DF91CF911F91FF90C8
:1021E000EF900C94C803DF91CF911F91FF90EF9077
:1021F0000895E0918D01F0918E01309739F022E041
:10220000DC012C930480F581E02D09940895209140
:102210008B0130918C018217930771F090938C01A0
:1022200080938B01E0918D01F0918E01309721F028
:102230000680F781E02D099408952091890130915D
:102240008A018217930771F090938A018093890124
:10225000E0918D01F0918E01309721F00084F1859D
:10226000E02D0994089585B7806885BF85B780689B
:1022700085BF0895089508950C943B1108950C941A
:102280003E110E9433110E943A110C943C1181E0DE
:1022900008950E945C1F0E9486040E9431200E94C3
:1022A000F40C0C943F11CF93C82F8091390282FF18
:1022B0001EC080FF04C08BE494E00E94C80380919C
:1022C000390280FF0CC01F92CF9386E494E09F9365
:1022D0008F930E9461040F900F900F900F90809148
:1022E000390280FF04C084E494E00E94C8038C2F6C
:1022F000CF910C948B087F928F929F92AF92BF9256
:10230000CF92DF92EF92FF920F931F93CF93DF93C1
:10231000CDB7DEB72A970FB6F894DEBF0FBECDBF9C
:102320000E94FC040E944711811111C08FEF898324
:102330008A831B820E94651F8160782F9D838C8316
:1023400049815A816B818D810E942B124FC030E9E7
:10235000832E31E0932E00E010E0702E802F0E943B
:1023600098056C01F401A190B1904F01A826B926FF
:10237000A114B10431F40F5F1F4F0630110569F746
:10238000D5CF8091390281FD0E94A10590E0EE2415
:10239000E394F12C97012A213B21232B09F19E8301
:1023A0007F82CE20DF2091E0CD2809F490E098874D
:1023B0000E94651F8160782F9A8789874E815F818F
:1023C00068858A850E942B12000F111FF801E057C3
:1023D000FE4F80819181E826F926F182E08206C0D5
:1023E0009F5FEE0CFF1C9E30A9F6C5CF0E946F23A5
:1023F00010918F010E9498101817C9F00E94981030
:1024000080938F012A960FB6F894DEBF0FBECDBF22
:10241000DF91CF911F910F91FF90EF90DF90CF90C0
:10242000BF90AF909F908F907F900C9453112A96FD
:102430000FB6F894DEBF0FBECDBFDF91CF911F91D5
:102440000F91FF90EF90DF90CF90BF90AF909F9053
:102450008F907F900895CF93DF93CDB7DEB72B9702
:102460000FB6F894DEBF0FBECDBF4F835887698784
:102470007A878B87DE01119686E0FD0111928A959D
:10248000E9F785E0FE01379601900D928A95E1F714
:1024900049815A816B817C818D819E810E947E1948
:1024A0002B960FB6F894DEBF0FBECDBFDF91CF9154
:1024B0000895FC01808191810E944A1C089588231F
:1024C00009F41AC18238C1F40E94981081FD14C128
:1024D00069E380910001909101010E94B21E0E9467
:1024E000D81C2FEF81EE94E0215080409040E1F71E
:1024F00000C0000069E319C08338F9F40E94981005
:1025000080FDFAC063E580910001909101010E9475
:10251000B21E0E94D81C2FEF81EE94E02150804023
:102520009040E1F700C0000063E5809100019091C8
:1025300001010E94BD1E0C94D81C8438C1F40E9475
:10254000981082FDD9C067E480910001909101014B
:102550000E94B21E0E94D81C2FEF81EE94E0215001
:1025600080409040E1F700C0000067E4DECF9CEFC0
:10257000980F913A40F4682F8091000190910101E9
:102580000E94B21ED8CF90E2980F983050F4877016
:1025900091E001C0990F8A95EAF7892F0E948C1C5F
:1025A000CACF9BE5980F933070F4853A29F0863AAC
:1025B00031F083E890E005C081E890E002C082E855
:1025C00090E00C94071198E5980F973108F08EC0B1
:1025D000883A09F445C0893A09F445C08A3A09F4B1
:1025E00045C08B3A09F445C08C3A09F445C08B3B91
:1025F00009F445C08C3B09F445C08D3A09F445C047
:10260000803B09F445C08E3A09F445C08F3A09F47D
:1026100045C0813B09F445C0823B09F445C0833B7A
:1026200009F445C0843B09F445C0853B09F445C025
:10263000863B09F445C0873B09F445C0883B09F453
:1026400045C0893B09F445C08D3B09F445C08E3B2C
:1026500009F445C08A3B09F445C080E090E044C0DD
:1026600082EE90E041C089EE90E03EC08AEE90E0BC
:102670003BC085EB90E038C086EB90E035C083EB43
:1026800090E032C084EB90E02FC087EB90E02CC04C
:102690008CEC90E029C08DEC90E026C083E891E0BE
:1026A00023C08AE891E020C082E991E01DC084E95E
:1026B00091E01AC081E292E017C083E292E014C078
:1026C00084E292E011C085E292E00EC086E292E0E0
:1026D0000BC087E292E008C08FE690E005C080E77B
:1026E00090E002C08AE292E00C941D11803F20F03D
:1026F0000E94F5210C94E2220895882309F464C015
:10270000823879F40E94981081FF5EC069E380915D
:102710000001909101010E94B21E0E94D81C69E341
:1027200010C08338B1F40E94981080FF4DC063E55B
:1027300080910001909101010E94B21E0E94D81C5C
:1027400063E580910001909101010E94BD1E0C94EF
:10275000D81C843879F40E94981082FF35C067E451
:1027600080910001909101010E94B21E0E94D81C2C
:1027700067E4E7CF9CEF980F913A10F4682FE1CF10
:1027800090E2980F983050F4877091E001C0990F53
:102790008A95EAF7892F0E94921CD9CF9BE5980F62
:1027A000933020F480E090E00C94071198E5980FA6
:1027B000973120F480E090E00C941D11803F20F0D0
:1027C0000E945D220C94E2220895CF93C82F0E94AC
:1027D0005F12C93349F42FEF87EE93E02150804018
:1027E0009040E1F700C000008C2FCF910C947D1336
:1027F000882321F00E948C1C0C94D81C08958823F7
:1028000021F00E94921C0C94D81C0895BF92CF9284
:10281000DF92EF92FF920F931F93CF93DF937C0190
:10282000062FC72FFC01158112951F70D281D1117F
:102830000E94AC1C0E94821C882379F0DD2369F081
:1028400080E2800F883048F082E00E94231D0E94C1
:10285000821C91E0B82EB92601C0B12CCC2EC294B6
:102860008FE0C822D12CF601EA5AFF4F0C94642C59
:102870008C2F807FCF70882311F0C295C07FDD231D
:1028800099F0CC2309F4C7C180E2800F883010F0A2
:10289000011104C08C2F0E948C1C03C08C2F0E943D
:1028A0009F1C0E94D81CB7C1802F0E947D13CC238F
:1028B00009F4FAC180E2800F883010F0011104C0E1
:1028C0008C2F0E94921C03C08C2F0E94A51C0E947A
:1028D000D81CEAC18C2F807FCF70803211F0C29556
:1028E000C07F002319F00130C9F021C0DD2371F051
:1028F000112341F0113031F40E94BF1C8C2B0E9437
:10290000C51CD2C10E94BF1C8C2B16C0112319F00C
:10291000113009F4C9C10E94CE1C1EC0DD2321F074
:10292000123008F0C1C107C01111BEC115C0DD23AE
:1029300031F0111170C18C2F0E94F813B5C1112311
:1029400059F0093309F078C1FFEF27EE83E0F15029
:1029500020408040E1F76EC18C2F0E94FF13A4C17C
:102960008C2F86958695837090E0009719F00197DB
:1029700061F09AC1DD2321F0802F9C2F937002C05B
:1029800080E090E00E9407119AC1DD2321F0802FA2
:102990009C2F937002C080E090E00E941D118FC1B7
:1029A000DD23F9F0053F51F0063F71F0043FA9F433
:1029B000809172029091730281600BC080917202CB
:1029C00090917302826005C08091720290917302AF
:1029D00084609093730280937202802F0E94F5218D
:1029E0001EC0053F51F0063F71F0043FA9F48091ED
:1029F0007202909173028E7F0BC08091720290914F
:102A000073028D7F05C080917202909173028B7F5B
:102A10009093730280937202802F0E945D220E9425
:102A2000E2224DC18C2F837009F049C0D11143C1FE
:102A3000402F429546954770440F440F602F6F70AA
:102A4000862F90E0A0E0B0E0042E04C0880F991F0C
:102A5000AA1FBB1F0A94D2F704FF10C00FE010E0BA
:102A600020E030E004C0000F111F221F331F4A95E1
:102A7000D2F7009510952095309503C000E010E046
:102A80009801C695C695C370D0E0BC01CD01602BFE
:102A9000712B822B932BC230D10559F0C330D10555
:102AA00059F0219719F00E94C31A05C10E94B11A6A
:102AB00002C10E94D51AFFC00E94AF1AFCC0DD23DC
:102AC00019F08C2F817001C08695882309F4F3C01A
:102AD000402F429546954770440F440F602F6F700A
:102AE000862F90E0A0E0B0E0042E04C0880F991F6C
:102AF000AA1FBB1F0A94D2F704FF10C00FE010E01A
:102B000020E030E004C0000F111F221F331F4A9540
:102B1000D2F7009510952095309503C000E010E0A5
:102B20009801C695C695C370D0E0BC01CD01602B5D
:102B3000712B822B932BC230D10559F0C330D105B4
:102B400059F0219719F00E94891BB5C00E94771B8C
:102B5000B2C00E949B1BAFC00E94EA1AACC0CF70EB
:102B6000DD2339F08C2F0E94101B802F0E94F81358
:102B7000A2C0802F0E94FF138C2F0E94311B9BC08C
:102B8000023FF9F028F4003F41F0013F99F03FC0C7
:102B9000033FF1F0043F31F13AC0DD2339F0111168
:102BA00083C08C2F8F710E94561B7EC0123008F09C
:102BB0007BC0F7CFDD2339F08C2F8F710E94101B63
:102BC00073C0DD23C9F38C2F8F710E94311B6CC041
:102BD000DD2329F08C2F8F710E94FB1A65C00E94A3
:102BE000F61A62C0DD2349F0CF718C2F0E94101BB2
:102BF00063E08C2F0E940E1D57C081E00E94231DB0
:102C0000123008F451C082E00E94231D4DC0DD2324
:102C100031F0112389F2802F0E945F1245C01123E9
:102C200091F2093349F49FEFE7EEF3E09150E04071
:102C3000F040E1F700C00000802F0E947D1334C0F7
:102C40004C2F4F70602FC7010E942A090E94221A40
:102C500036C0D11134C0CF70D0E0C230D10599F068
:102C60003CF4209769F02197F9F40E944D0D27C09C
:102C7000C430D10571F054F02597B1F480E00AC05A
:102C80000E94150D1CC00E94C10D19C00E94DD0DCF
:102C900016C083E00E941B0E12C04C2F4F70602F95
:102CA000C7010E942D090BC028E0C21AD10884E098
:102CB000C816D10420F40E9498100E948B08BB20F3
:102CC000D1F00E947E1C80FD16C0F70112820E9486
:102CD000781C0E94101BC7010E9485160E94781C58
:102CE000DF91CF911F910F91FF90EF90DF90CF90E8
:102CF000BF900C94311BDF91CF911F910F91FF90EA
:102D0000EF90DF90CF90BF9008950F931F93CF93D4
:102D1000DF93EC01888199812B813C81232BB9F0D1
:102D20009F3F11F48F3F99F0CE010E94A4088823A1
:102D300071F0688179818A810E94551C8C010E9402
:102D4000AD1B0E94AE1AB801CE010E940614DF919D
:102D5000CF911F910F910895882321F00E949F1C0D
:102D60000C94D81C0895882321F00E94A51C0C9473
:102D7000D81C08950E94AC1C0E94BC1C0E94D81C48
:102D80000E940A240E94E22280E090E00E94071143
:102D900080E090E00C941D11809100019091010160
:102DA0000E94C81E0C94BA160E949C1C0C94CC164F
:102DB000E92FE295EF70F0E03297EE30F105B0F4D4
:102DC000EA59FF4F0C94642C803F91F018F4883E30
:102DD00068F40EC0843F51F40BC0883E48F0813F38
:102DE00029F406C093FB882780F9089580E00895B0
:102DF00081E008950E944A1C0E94D8160895CF933E
:102E0000DF9300D000D01F92CDB7DEB70F900F90A8
:102E10000F900F900F90DF91CF910895CF93DF9394
:102E200000D000D000D0CDB7DEB726960FB6F8940C
:102E3000DEBF0FBECDBFDF91CF9108951F93CF931B
:102E4000DF93C0919D0116E080919E01C81799F013
:102E5000D0E01C9FF0011D9FF00D1124E156FE4FA4
:102E60004081518162817381848195810E940E1716
:102E70002196C770E9CFDF91CF911F9108954091BE
:102E8000CF015091D0016091D1017091D201809118
:102E9000D3019091D4010C940E178091D4018295A6
:102EA0008F7009F054C08091D101882309F44FC07C
:102EB00080919D01A0919E016091CF017091D00100
:102EC0004091D2015091D301B6E08A1709F43FC076
:102ED00090E041155105C1F17F3F11F46F3FA1F121
:102EE000B89FF001B99FF00D1124E156FE4F2181EA
:102EF00072132AC02081621327C02281211124C0AD
:102F0000238134812417350710F421503109241B03
:102F1000350B283C3105C0F42091D4012F7020617D
:102F20002093D40126E0289FF001299FF00D112461
:102F3000EC55FE4F80818F70806180838FEC91E033
:102F40000E9485160C941E1701968770BECF0895B7
:102F5000CF92DF92EF92FF920F931F93CF93DF9365
:102F6000CDB7DEB762970FB6F894DEBF0FBECDBF08
:102F70008C0185E0F801DE011D9601900D928A9585
:102F8000E1F7D8014C9111965C91119712966C91D2
:102F900012971396CD90DC9014973091CF017091D9
:102FA000D0018091D2019091D301009709F46BC1B7
:102FB0007F3F19F43F3F09F466C1E090D101EE2054
:102FC00009F4C0C02091D401C816D90628F0F60132
:102FD000E81BF90BCF0104C0809590958C0D9D1DC9
:102FE000FF24F394883C910578F0F12C207F09F0C0
:102FF000C6C07C2DD98AC88A89890E94FF168FECA9
:1030000091E00E948516B1C0822F807F09F046C0F2
:10301000751314C0341312C0611110C02F702061D9
:103020002093D4010E943F178FEC91E00E948516F7
:103030008091D401D80115968C932EC0CD2819F11A
:103040005F3F11F44F3FF9F0F62E61111CC08091E3
:103050009D0120919E0136E0821709F45AC090E04C
:10306000389FF001399FF00D1124E156FE4F718118
:10307000571306C07081471303C07281711103C0DA
:1030800001968770E9CFF62E662309F427C1809157
:10309000D40181608093D401F12C20C1751308C044
:1030A000341306C0611104C08091D401D801C3C09B
:1030B0004D875E878D859E856A8B0E94FA166A8988
:1030C0008823E1F16623D1F12091D401822F8295EA
:1030D0008F7090E0029774F08091CF019091D001B1
:1030E00098878F831986DB86CA862C87CE01079640
:1030F0000E94851686E0F801AFECB1E001900D92D8
:103100008A95E1F70E944D170E943F17FF24F39420
:10311000E5C04D875E878D859E850E944A1C292FBC
:1031200022952F7030E0223031050CF0CBC09F701B
:1031300009F0C5C0805E883008F4D0C0C8010E9484
:103140008516E4CFC816D90608F453C0F601E81B6B
:10315000F90BCF01883C910508F450C0F12C7C2D6F
:10316000D98AC88A89890E94FF16EFECF1E086E0CF
:10317000DF011D928A95E9F70E943F17AFC07513D2
:1031800014C0341312C0611110C08091D401F80131
:103190008583C8010E94851686E0EFECF1E0DF012F
:1031A0001D928A95E9F7FE2C99C04D875E878D8523
:1031B0009E856A8B0E94FA166A89882309F4BECF1D
:1031C000662309F4BBCF2091D401822F82958F70A2
:1031D00090E002970CF48ECF8091CF019091D001B6
:1031E0009A8389831B82DD82CC822E83CE01019655
:1031F0007FCF809590958C0D9D1DACCFF62E6623CC
:1032000009F49CCF75132EC034132CC02091D40127
:1032100020FD1FC0822F82958F70D9F0D80115969E
:103220002C9315978F3049F08F5F982F9295907F50
:10323000822F8F70892B15968C93C8010E9485165A
:1032400086E0F801AFECB1E001900D928A95E1F7CC
:1032500093CF86E0F801AFECB1E001900D928A9532
:10326000E1F73CC04D875E878D859E850E94FA16EA
:10327000811140CF8091D40181608093D401C80135
:103280000E9485162BC0662309F458CF4D875E87B0
:103290008D859E850E94FA16F82E882309F44ECF5C
:1032A00086E0F801AFECB1E001900D928A95E1F76C
:1032B0008FEC91E00E9459120E944D175DCF811151
:1032C00039CF0CC0243031050CF038CF9F7009F491
:1032D00031CFF8019581907F09F02CCF8F2D629628
:1032E0000FB6F894DEBF0FBECDBFDF91CF911F9117
:1032F0000F91FF90EF90DF90CF9008951F93CF93A1
:10330000DF93CDB7DEB72C970FB6F894DEBF0FBEB4
:10331000CDBF4F83588769877A878B879C87CE017B
:1033200007960E94A817882369F08F8198852A85BF
:103330003B85232BF1F19F3F09F063C08F3F09F0DC
:1033400060C037C086E0FE013796DE01119601901D
:103350000D928A95E1F76F817885EA85FB85309734
:1033600041F17F3F11F46F3F21F120919E0130E048
:10337000C90101968770992740919D0150E08417FB
:10338000950709F447C069837A83FD83EC8396E04F
:10339000929FD001939FB00D1124A156BE4FFE0104
:1033A000319601900D929A95E1F780939E010E94CB
:1033B0001E1716E080919D0190919E018917C1F121
:1033C000189FC001112481569E4F0E94A817882380
:1033D00079F1E0919D011E9FF0011124E156FE4F0D
:1033E0004081518162817381848195810E940E1791
:1033F00080919D0190E001968770992780939D01AF
:10340000D9CF4F81588569857A858B859C850E94A7
:103410000E17CFCF0E94D41610929E0110929D01DC
:10342000EFECF1E086E0DF011D928A95E9F7C1CF6C
:103430002C960FB6F894DEBF0FBECDBFDF91CF91B3
:103440001F910895EF92FF920F931F93CF93DF93F5
:103450008C01892B09F46CC0F12CEE24E394E80173
:103460002196F8018491843740F4843008F051C0EB
:10347000813081F0823019F15BC0853709F444C096
:10348000A8F19CE7980F903708F052C08F770E9400
:103490007D1341C00E5F1F4FFE01C49180E28C0F6F
:1034A000883048F4C7708E2D01C0880FCA95EAF79E
:1034B0000E94AF1C14C08C2F0E945F122DC00E5FA3
:1034C0001F4FFE01C49180E28C0F883058F4C77002
:1034D0008E2D01C0880FCA95EAF70E94B51C0E9484
:1034E000D81C1AC08C2F0E947D1316C00E5F1F4F70
:1034F000FE01C491CC2381F08FE99FE00197F1F7A1
:1035000000C00000C150F6CF0E5F1F4FFE01F490C7
:1035100003C00E945F128E018F2D882309F49FCF74
:10352000EFE9FFE03197F1F700C000008150F5CFDF
:10353000DF91CF911F910F91FF90EF900895089523
:103540000C949F1A0E94A01A6093100270931102AB
:1035500080931202909313020C94BA1608950C945F
:10356000A21A0F931F930091100210911102209143
:10357000120230911302602B712B822B932B1F911F
:103580000F910C94A21A0F931F93009110021091A7
:1035900011022091120230911302602371238223C1
:1035A00093231F910F910C94A21A0F931F930091D4
:1035B0001002109111022091120230911302602723
:1035C0007127822793271F910F910C94A21A0895B7
:1035D0000C94E71A0E94E81A60930C0270930D0293
:1035E00080930E0290930F020C94BA1660E070E084
:1035F000CB010C94EA1A0F931F9341E050E060E076
:1036000070E08A019B0104C0000F111F221F331FAD
:103610008A95D2F7C901B8011F910F910C94EA1A4B
:103620000F931F9341E050E060E070E004C0440F4E
:10363000551F661F771F8A95D2F780910C029091D3
:103640000D02A0910E02B0910F028A019B01082B7E
:10365000192B2A2B3B2BC901B8011F910F910C94F8
:10366000EA1A0F931F9341E050E060E070E004C05D
:10367000440F551F661F771F8A95D2F740955095C6
:103680006095709580910C0290910D02A0910E02B0
:10369000B0910F028A019B01082319232A233B239F
:1036A000C901B8011F910F910C94EA1A0F931F934F
:1036B00041E050E060E070E004C0440F551F661F19
:1036C000771F8A95D2F780910C0290910D02A091FC
:1036D0000E02B0910F028A019B01082719272A27A1
:1036E0003B27C901B8011F910F910C94EA1A0F935F
:1036F0001F9300910C0210910D0220910E02309147
:103700000F02602B712B822B932B1F910F910C9426
:10371000EA1A0F931F9300910C0210910D02209151
:103720000E0230910F0260237123822393231F9195
:103730000F910C94EA1A0F931F9300910C021091B1
:103740000D0220910E0230910F026027712782270F
:1037500093271F910F910C94EA1A08952EE0929FDF
:10376000800D1124A82FA695A695A695877051E0E7
:1037700001C0550F8A95EAF785E0A89FD001112472
:1037800020E030E070E0F901EA0FFB1FEB52FE4F42
:103790004081CB01022E02C0969587950A94E2F7EC
:1037A00081709927819584278523842780832F5FC3
:1037B0003F4F2530310539F708952EE0929F800D57
:1037C0001124682F669566956695982F977085E009
:1037D000689FB001112440E050E080E0FA01E60F5C
:1037E000F71FEB52FE4F208130E0092E02C03695C4
:1037F00027950A94E2F721703327042E01C0220F87
:103800000A94EAF7822B4F5F5F4F4530510531F73D
:103810000895BF92CF92DF92EF92FF920F931F9382
:10382000CF93DF938C01C0901002D0901102E090F2
:103830001202F090130280910C0290910D02A0915F
:103840000E02B0910F02C82AD92AEA2AFB2ACFE138
:10385000D0E0D701C6010C2E04C0B695A795979568
:1038600087950A94D2F780FF07C0BC2EB8018C2F31
:103870000E944809019719F4219758F7B12C8B2D14
:10388000DF91CF911F910F91FF90EF90DF90CF903C
:10389000BF900895CF93DF93EC010E94091CBE01F5
:1038A0000E944809DF91CF9108951F93CF93DF9332
:1038B000EB0190919C01992321F0CB010E944A1CBD
:1038C00013C0882349F0CB010E94091C182F682FD0
:1038D000CE010E94AE1B04C0CB010E94DD1B182F3D
:1038E000BE01812F0E944809DF91CF911F91089559
:1038F000809114028595859585950895809114028F
:103900008770089590911402977081E009F480E027
:10391000089580913802089590913802892B809300
:103920003802089580959091380289238093380257
:103930000895809338020895109238020895909166
:103940003702892B80933702089580959091370232
:103950008923809337020895109237020895909139
:103960003602892B80933602089580959091360215
:10397000892380933602089510923602089580912B
:103980001502089508950C94C21C90911502981781
:1039900021F0809315020C94C31C089580911502A8
:1039A000882329F01092150280E00C94C31C08951E
:1039B000E0910001F0910101809138028083E09153
:1039C0000001F0910101908180913702892B808361
:1039D000E0910001F0910101908180913602892BE4
:1039E000808380911502882381F0E0910001F0919D
:1039F00001019081892B80838091000190910101C8
:103A00000E942B1E81110E94CE1C8091000190917A
:103A100001010C94A41008950C940B1D98E0899F4B
:103A200090011124262B209314020E94101B8091D8
:103A300014028595859585950C940C1D10921402A1
:103A400080E00C940C1D20911402809582238093B9
:103A50001402982F977079F430E0482F082E000C4C
:103A6000550B2417350739F08595859585950E9466
:103A7000311B0C941E1D0895909323018093220105
:103A800008958295982F9C7C392F36953695282F4E
:103A9000237344E0249FC0011124932F982B292FD6
:103AA0002A7A2695892F8575880F822B08951F9372
:103AB000CF93DF931F92CDB7DEB799830E94411D4C
:103AC000182F9981892F0E94411D212F30E0322F1C
:103AD0002227A901482BCA010F90DF91CF911F9196
:103AE000089580E090E00E948C2C21E08C3E9E4F57
:103AF00009F020E0822F089582E090E00C94842C5D
:103B0000682F82E090E00C94922C83E090E00C947B
:103B1000842C682F83E090E00C94922CCF9384E067
:103B200090E00E94842CC82F81E290E00E94842CB7
:103B30002C2F30E0A901582BCA01CF910895CF93C3
:103B4000C92F682F84E090E00E94922C6C2F81E2B4
:103B500090E0CF910C94922C86E090E00C94842C11
:103B6000682F86E090E00C94922CAB01BC018FE0B2
:103B700090E00C94A42CAB01BC0183E190E00C9488
:103B8000A42C60E070E0CB010C94BB1D60E070E001
:103B9000CB010E94B51D0C94C11D6CEE7EEF80E040
:103BA00090E00E94B02C60E082E090E00E94922CB5
:103BB00060E083E090E00E94922C1092100210923C
:103BC0001102109212021092130260E084E090E061
:103BD0000E94922C60E081E290E00E94922C60E0D2
:103BE00085E090E00E94922C60E086E090E00E94E8
:103BF000922C6FEF87E090E00E94922C40E050E022
:103C0000BA0188E090E00E94A42C60E08DE090E092
:103C10000E94922C40E050E0BA0188E190E00E94BE
:103C2000A42C60E087E190E00E94922C40E050E0FC
:103C3000BA018CE190E00E94A42C60E080E290E068
:103C40000E94922C0C94C61D0C94CD1D682F8EE002
:103C500090E00C94922CFC01329680911101882303
:103C600031F08091780287FF02C09EE101C096E0AA
:103C700080E0915028F021912223D9F38F5FF9CF72
:103C800008959C01FC0132969FEF80E04191461718
:103C900089F09F3F19F4411101C0982F8F5F863042
:103CA000A9F79F3F39F0F901E90FF11D97FDFA954A
:103CB000628308950895FC013296089620812613A8
:103CC00001C010823196E817F907C1F70895262F31
:103CD0002695269526952E3170F4FC01E20FF11DF4
:103CE000677021E030E001C0220F6A95EAF7828117
:103CF000282B228308958091390280FF0CC01F92E7
:103D00006F938CE794E09F938F930E9461040F90D0
:103D10000F900F900F900895262F269526952695A3
:103D20002E3178F4FC01E20FF11D677021E030E0E4
:103D300001C0220F6A95EAF7209582812823228309
:103D400008958091390280FF0CC01F926F938EE519
:103D500094E09F938F930E9461040F900F900F90B7
:103D60000F90089520911101222329F020917802CB
:103D700027FD0C94671E0C94411E209111012223F3
:103D800029F02091780227FD0C948C1E0C945B1E68
:103D900020911101FC013296222331F080917802AA
:103DA00087FF02C08EE101C086E0DF011D928A9587
:103DB000E9F7089508950C94DA1E0E94DB1E8091A5
:103DC0007E02843061F110923A0220E488E190E0B2
:103DD0000FB6F894A895809360000FBE2093600002
:103DE00080E00E944B0E80E00E948B080E94DB1E48
:103DF00083B7817F846083BF83B7816083BF7894FA
:103E0000889583B78E7F83BF0FB6F894A89580916D
:103E10006000886180936000109260000FBE08957A
:103E20000895CF930E94A2040E94FC040E94101FD8
:103E3000C0E08C2F0E949805892B29F4CF5FC630F3
:103E4000C1F780E001C081E0CF91089508950C94FE
:103E5000261F0E94D4160E94F40C0E9498100E9403
:103E60008B080C94271F1F920F920FB60F921124EC
:103E70008F939F93AF93BF9380913A02811113C0A8
:103E80008091740290917502A0917602B0917702B0
:103E90004196A11DB11D8093740290937502A09369
:103EA0007602B0937702BF91AF919F918F910F905F
:103EB0000FBE0F901F90189582E084BD93E095BDD2
:103EC0009AEF97BD80936E0008952FB7F894809174
:103ED000740290917502A0917602B09177022FBF83
:103EE0000895CF92DF92EF92FF920F931F932FB717
:103EF000F89440917402509175026091760270912D
:103F000077022FBF6A017B01EE24FF248C0120E0A1
:103F100030E0C016D106E206F30610F44150510914
:103F20009A01281B390BC9011F910F91FF90EF9047
:103F3000DF90CF90089578941F920F920FB60F9252
:103F400011248F939F93AF93BF93809174029091AC
:103F50007502A0917602B09177020196A11DB11D64
:103F60008093740290937502A0937602B0937702C7
:103F7000BF91AF919F918F910F900FBE0F901F90A7
:103F8000189581E08093E00080E28093D800109241
:103F9000C9008FE19EE40197F1F700C0000087E0BF
:103FA00090EBDC018093870290938802A0938902B2
:103FB000B0938A029CE088E10FB6F894A8958093AC
:103FC00060000FBE90936000FFCFAF92BF92CF9280
:103FD000DF92EF92FF920F931F93CF93C0E0CC2418
:103FE000C394D12CE82EF12C8C2F0E9498055C01F3
:103FF00000E010E09601002E02C0220F331F0A9449
:10400000E2F72A213B21232B31F40F5F1F4F0E30A3
:10401000110581F70AC0602F7C2F80E00E942E09D5
:10402000E816F90691F781E004C0CF5FC630E1F6EB
:1040300080E0CF911F910F91FF90EF90DF90CF9094
:10404000BF90AF900895CF93C82F8CE20E94E51FD8
:10405000882321F08C2FCF910C94E51F80E0CF9125
:104060000895CF930E94711D811102C00E94241EE9
:1040700081EA94E00E94C803C5E6C15049F00E945D
:10408000FC048FE39CE90197F1F700C00000F5CF35
:104090008AE994E00E94C80389E20E9423208111EA
:1040A00020C18AE20E94232081110E94241E85E003
:1040B0000E94232081110E94C11F0E947C1D8093B9
:1040C000390287E00E9423208823A9F18BE10E9416
:1040D0002320882351F08091390281FB222720F987
:1040E00091E0922790FB81F90EC08EE00E94232080
:1040F000882361F08091390282FB222720F991E028
:10410000922790FB82F98093390215C080E10E94CA
:10411000232090913902882341F093FB222720F934
:1041200081E0822780FB93F904C0892F809580FB72
:1041300090F990933902809139020E94801D0E946B
:104140008E1D909379028093780280EE0E94232046
:10415000882341F080917802982F909590FB80F908
:104160008093780289E30E942320882359F080916C
:10417000780281FB222720F991E0922790FB81F9B8
:104180008093780282EE0E942320882359F0809148
:10419000780282FB222720F991E0922790FB82F996
:1041A0008093780286EE0E942320882359F0809124
:1041B000780283FB222720F991E0922790FB83F974
:1041C0008093780283EE0E942320882359F0809107
:1041D000780284FB222720F991E0922790FB84F952
:1041E0008093780285E30E942320882359F08091F0
:1041F000780285FB222720F991E0922790FB85F930
:104200008093780281E30E942320882359F08091D3
:10421000780286FB222720F991E0922790FB86F90D
:104220008093780281E10E942320882359F08091B5
:10423000780287FB222720F991E0922790FB87F9EB
:104240008093780280917802909179020E949F1D5C
:1042500087E20E942320C82F8EE10E942320811133
:10426000C2608FE10E9423208111C46080E20E941D
:1042700023208111C86081E20E9423208111C06146
:1042800082E20E9423208111C06283E20E942320E7
:104290008111C06484E20E942320882311F0C06849
:1042A00002C0CC2329F08C2F0E94891D6C2F03C0E3
:1042B0000E94851D682F70E080E090E00E94AF1A98
:1042C0008FE00E942320882319F081E00E94261E9F
:1042D00085E10E942320882321F080E0CF910C9477
:1042E000261ECF91089580913F0280FF0BC0609100
:1042F000050185E0689FB001112475956795759556
:1043000067952BC081FF09C06091050185E0689F1A
:10431000B00111247595679520C082FF07C0609198
:10432000050185E0689FB001112417C090913E02FD
:104330009923D1F060910401961788F72091050127
:1043400085E0289F90011124929FA001939F500D1A
:10435000112470E0CA010E942E2C6038710540F4CF
:104360006115710539F002C065E070E0862F08958F
:104370008FE7089581E0089580913F0280FF08C093
:104380006091030170E0759567957595679521C0FB
:1043900081FF06C06091030170E07595679519C0B3
:1043A00082FF04C06091030170E010C090913E0252
:1043B0009923C1F0609102019617A0F78091030143
:1043C000899FC001112470E00E942E2C6038710575
:1043D00028F46115710521F0862F08958FE708955F
:1043E00081E0089561E070E0F4CF803F21F40E9405
:1043F0007321819504C0813F29F40E947321809329
:1044000043020895823F21F40E947321819504C0E4
:10441000833F29F40E947321809342020895893FCB
:1044200019F40E94BC2105C08A3F31F40E94BC21CE
:1044300081958093440208958B3F21F40E94BC2112
:10444000819504C08C3F29F40E94BC2180934502D1
:104450000895843F21F480914102816017C0853F17
:1044600021F480914102826011C0863F21F4809145
:10447000410284600BC0873F21F480914102886033
:1044800005C0883F31F480914102806180934102F0
:1044900008958D3F21F480913F0281600BC08E3FD3
:1044A00021F480913F02826005C08F3F29F4809102
:1044B0003F02846080933F020895803F39F48091E9
:1044C000430287FF6CC01092430269C0813F29F408
:1044D000809143021816BCF362C090914202823F61
:1044E00029F497FF5CC01092420259C0833F19F42F
:1044F0001916CCF354C0893F41F480914402181638
:104500000CF04DC0109244024AC08A3F29F48091B9
:10451000440287FF44C0F6CF8B3F39F480914502B7
:1045200087FF3DC0109245023AC08C3F29F480912C
:1045300045021816BCF333C0843F21F48091410238
:104540008E7F17C0853F21F4809141028D7F11C07D
:10455000863F21F4809141028B7F0BC0873F21F47D
:1045600080914102877F05C0883F31F480914102EC
:104570008F7E8093410213C08D3F21F480913F02D2
:104580008E7F0BC08E3F21F480913F028D7F05C04E
:104590008F3F29F480913F028B7F80933F0280916F
:1045A000420281110EC08091430281110AC08091A4
:1045B0004402811106C080914502811102C010920F
:1045C0003E0208958091390283FF7EC08DED94E014
:1045D0000E94C803809141021F928F9388ED94E05E
:1045E0009F938F930E94610486ED94E00E94C8031C
:1045F00080914202282F082E000C330B3F938F939B
:1046000083ED94E09F938F930E94610481ED94E089
:104610000E94C80380914302282F082E000C330B00
:104620003F938F938EEC94E09F938F930E9461044D
:104630008CEC94E00E94C80380914402282F082E3D
:10464000000C330B3F938F9389EC94E09F938F93EF
:104650000E94610487EC94E00E94C80380914502A7
:10466000282F082E000C330B3F938F9384EC94E09B
:104670009F938F930E94610481EC94E00E94C80391
:1046800080913E021F928F938EEB94E09F938F93C5
:104690000E9461048CEB94E00E94C80380913F0269
:1046A0001F928F9389EB94E09F938F930E946104F4
:1046B00086EB94E00E94C8038DB79EB74C960FB668
:1046C000F8949EBF0FBE8DBF80E492E00E94F91067
:1046D0000E94651F90933D0280933C0208951F93B2
:1046E000CF93DF9380913C0290913D020E94711F15
:1046F000AC0190913E02992321F02091060130E017
:1047000006C020913B028AE0289F900111244217A5
:10471000530708F47BC080914202C0914302D091BC
:10472000440210914502811107C0C1116BC0D11123
:1047300069C0111167C06AC09F3F19F09F5F9093D5
:104740003E02181624F40E94732180934202809145
:10475000420287FF05C00E94732181958093420227
:104760001C1624F40E94732180934302809143021B
:1047700087FF05C00E947321819580934302309189
:1047800042023323E1F0209143022223C1F045EBA2
:104790003403C0011124892F990F990B009709F454
:1047A00081E08093420235EB2303C0011124892F5D
:1047B000990F990B009709F481E0809343021D162D
:1047C00024F40E94BC21809344028091440287FF1C
:1047D00005C00E94BC21819580934402111624F4E7
:1047E0000E94BC21809345028091450287FF05C04D
:1047F0000E94BC21819580934502DF91CF911F914A
:104800000C94E2229F3F09F099CFA1CFDF91CF9185
:104810001F910895E0E4F2E086E0DF011D928A95A1
:10482000E9F710923E0210923F02089580916902CA
:1048300008959FB7F894109248029FBF90917E020E
:10484000943009F057C09091E9009F703091EC00CE
:10485000232F217030FD20E8922B23E02093E900E4
:104860002091EB0020FF43C02091EE0027FF3FC0C6
:1048700020914602222321F02091E80025FF37C035
:104880001092460226E03091E80035FD15C03091C7
:104890007E02343061F53091EB0035FD28C02150A7
:1048A00021F481E08093460222C0EFE9FFE03197D6
:1048B000F1F700C00000E7CF8093F1008091E8009D
:1048C00085FD0AC08091E80080FFFCCF8091E80060
:1048D0008E778093E80006C08FB7F89421E020938C
:1048E00048028FBF9F709093E90080E008959F7009
:1048F0009093E9008FEF08950F931F93CF93DF9369
:1049000000D01F92CDB7DEB78C010E9446278230BF
:1049100011F0843021F584E089831B830A8382E0CF
:104920008093E9008FEF9091E800815095FD06C0DB
:1049300095ED9A95F1F700008111F5CF8091E8008F
:1049400085FF0DC040E050E063E070E0CE010196CD
:104950000E9463278091E8008E778093E8000F9093
:104960000F900F90DF91CF911F910F910895CF93EA
:10497000DF9300D01F92CDB7DEB720917E022430A6
:1049800031F523E02983805891099B838A8382E053
:104990008093E9008FEF9091E800815095FD06C06B
:1049A00095ED9A95F1F700008111F5CF8091E8001F
:1049B00085FF0DC040E050E063E070E0CE0101965D
:1049C0000E9463278091E8008E778093E8000F9023
:1049D0000F900F90DF91CF910895CF93DF93EC016B
:1049E0000E944627823011F08430F9F482E08093EF
:1049F000E9009FEF8091E800915085FD06C085EDAC
:104A00008A95F1F700009111F5CF8091E80085FFBC
:104A10000CC040E050E066E070E0CE010E946327E9
:104A20008091E8008E778093E800DF91CF91089520
:104A3000CF93DF93EC010E944627823011F084303F
:104A4000D9F580911101882339F08091780287FF90
:104A500003C060E282E002C068E081E08093E90088
:104A60008FEF9091E800815095FD06C095ED9A95E5
:104A7000F1F700008111F5CF8091E80085FF1CC09F
:104A800080911101811105C040E050E068E070E0C4
:104A900003C070E040E050E0CE010E9463278091A7
:104AA000E8008E778093E80080E2FE01A9E4B2E09E
:104AB00001900D928A95E1F7DF91CF91089585E2FB
:104AC00095E00E94C80380917D02811109C00E9477
:104AD000F8280E9455298091E20084608093E200CA
:104AE000089581E295E00E94C80310927D02089526
:104AF0008DE195E00C94C80389E195E00C94C8031E
:104B000085E195E00E94C8030C94291F209147027B
:104B10002F5F822F62E30E940E2C992319F02093BD
:104B2000470208951092470280914802882371F14C
:104B300080917E02843041F58091E9008F70209150
:104B4000EC00922F917020FD90E8892B93E09093D8
:104B5000E9009091EB0090FF14C09091EE0097FF58
:104B600010C09091E80095FF03C01092F100F9CFBA
:104B70009091E80090FF05C09091E8009E77909397
:104B8000E8008F708093E90010924802089542E097
:104B900061EC81E00E94722842E261EC82E00E94B6
:104BA000722842E261EC83E00C94722880918002CA
:104BB000833009F460C030F4813071F0823009F440
:104BC00099C008958A3009F485C08B3009F46BC010
:104BD000893009F0A7C020C080917F02813A09F096
:104BE000A1C08091E800877F8093E80080918302D4
:104BF00090918402892B21F460E289E492E003C061
:104C000060E080E090E070E00E94AE278091E800D4
:104C10008B778093E800089580917F02813209F0BC
:104C200081C08091830290918402029708F07AC03B
:104C30008091E800877F8093E8008091E80082FD02
:104C400005C080917E028111F8CF6CC02091F300E5
:104C50008091F20090E0922B029729F48091F1006C
:104C60008B7F813021F48091F100809369028091E3
:104C7000E8008B7753C080917F02813A09F052C0DF
:104C80008091830290918402892B09F04BC080911E
:104C9000E800877F8093E8008091E80080FFFCCFE8
:104CA0008091110136C080917F028132D9F58091C7
:104CB000830290918402892BA9F58091E800877F77
:104CC0008093E8000E94A7288091810280931101BF
:104CD0000C94D41680917F02813221F58091E800F6
:104CE000877F8093E8000E94A728809182028093AA
:104CF0006A02089580917F02813AA1F48091E800D0
:104D0000877F8093E8008091E80080FFFCCF80914E
:104D10006A028093F1008091E8008E778093E8002A
:104D20000C94A728089584B7877F84BF0FB6F894A2
:104D3000A895809160008861809360001092600067
:104D40000FBE90E080E80FB6F894809361009093D6
:104D500061000FBE0E9441110E94F8280E9455294F
:104D60008091E20084608093E20089E194E20E94F5
:104D70003C1D78940E94E32B0E94491187E091E04A
:104D80000E94931084E095E00E94C80380917E0207
:104D9000853089F480E095E00E94C8030E94DD1E02
:104DA00080917C02882391F30E94111F882371F364
:104DB0000E944D27EBCF0E947B11E8CF0C94E02698
:104DC000292F332723303105C9F064F42130310510
:104DD00081F02230310509F049C08BE590E027E5EC
:104DE00035E048C02132310521F12232310571F11F
:104DF0003DC082E190E022EB35E03CC09927813054
:104E0000910571F02CF4892B89F5E3E5F5E00DC0EF
:104E10008230910541F0039749F5E9E2F5E005C0DC
:104E2000EFE3F5E002C0EFE2F5E0849190E09F014E
:104E300021C063307105D0F4660F771FFB01E55E7A
:104E4000FE4F2081318189E090E014C0633071050C
:104E500068F4FB01EE0FFF1FEB5EFE4F20813181F6
:104E6000FB01EE5EFE4F808190E004C080E090E0A8
:104E700020E030E0FA0131832083089580917E02A2
:104E8000843011F081E0089582E0089580916B02F2
:104E9000811102C00C943E27089580E189BD82E112
:104EA00089BD09B400FEFDCF8091D8008F7D80932D
:104EB000D8008091E00082608093E0008091E00063
:104EC00081FDFCCF0895CF92DF92EF92FF920F9376
:104ED0001F93CF93DF93EC018B016A010E94C628D8
:104EE000811133C0C114D10439F0F6018081918160
:104EF000081B190BC80FD91FE12CF12C0115110546
:104F000019F18091E80085FD16C08091E8008E7748
:104F10008093E800C114D10449F0F60180819181A9
:104F2000E80EF91EF182E08285E00FC00E94C628DB
:104F3000882321F30AC089918093F100015011095F
:104F4000FFEFEF1AFF0ADACF80E0DF91CF911F91D8
:104F50000F91FF90EF90DF90CF9008952091850200
:104F6000309186022617370748F06115710539F42C
:104F70002091E8002E772093E80001C0B90140E0BD
:104F800061157105A9F120917E02222309F443C025
:104F9000253009F442C02091E80023FD40C0209153
:104FA000E80022FD32C02091E80020FFE9CF4091C7
:104FB000F3002091F20030E0342BFC01CF016115A9
:104FC000710559F02830310540F481918093F1004A
:104FD000615071092F5F3F4FF1CF41E0283031051B
:104FE00009F040E02091E8002E772093E800C8CF38
:104FF0004111C9CF0AC080917E02882361F08530BB
:1050000061F08091E80083FD0AC08091E80082FF92
:10501000F2CF80E0089582E0089583E0089581E072
:10502000089520918502309186022617370748F0AF
:105030006115710539F42091E8002E772093E8007E
:1050400001C0B901FC0120E06115710591F1809169
:105050007E02882309F440C0853009F43FC0809166
:10506000E80083FD3DC08091E80082FD2FC0809163
:10507000E80080FFE9CF2091F3008091F20090E0FA
:10508000922B6115710559F08830910540F42491F7
:105090002093F1003196615071090196F2CF21E021
:1050A000089709F020E08091E8008E778093E8006F
:1050B000CBCF2111CCCF0AC080917E02882361F032
:1050C000853061F08091E80083FD0AC08091E8009E
:1050D00082FFF2CF80E0089582E0089583E0089592
:1050E00081E00895982F973058F59093E90098172C
:1050F00039F07091EC002091ED005091F00003C068
:10510000242F762F50E021FF19C03091EB003E7F15
:105110003093EB003091ED003D7F3093ED00309106
:10512000EB0031603093EB007093EC002093ED00C6
:105130005093F0002091EE0027FF07C09F5FD3CF70
:105140008F708093E90081E0089580E00895809158
:105150007F0287FF11C08091E80082FD05C0809129
:105160007E028111F8CF11C08091E8008B770BC0CF
:1051700080917E02882349F08091E80080FFF8CF7B
:105180008091E8008E778093E80008952091E400F4
:105190003091E50095E64091EC00842F817040FF4E
:1051A00022C08091E80080FD1CC080917E0288238F
:1051B00091F0853091F08091EB0085FD10C0409119
:1051C000E4005091E5004217530729F39A019150EA
:1051D00011F784E0089582E0089583E0089581E066
:1051E000089580E008954091E80042FFDECF0895E1
:1051F0000E9466290E946E29E0EEF0E080818160C5
:105200008083E8EDF0E080818F77808319BCA7ED83
:10521000B0E08C918E7F8C9380818F7E8083109202
:105220007D0208950F931F93CF93DF930E94662909
:105230000E946E29C8EDD0E088818F7788838881AD
:105240008068888388818F7D888319BC10927E0254
:1052500010927A0210927C0210927B0200EE10E013
:10526000F80180818B7F808388818160888342E020
:1052700060E080E00E947228E1EEF0E080818E7FA5
:105280008083E2EEF0E080818160808380818860AD
:105290008083F80180818E7F80838881806188830C
:1052A000DF91CF911F910F910895E8EDF0E080819B
:1052B0008F7E8083E7EDF0E080818160808384E0F1
:1052C00082BF81E080937D020C941229E8EDF0E02A
:1052D00080818E7F80831092E20008951092DA0020
:1052E0001092E10008951F920F920FB60F921124B1
:1052F0002F933F934F935F936F937F938F939F93DE
:10530000AF93BF93EF93FF938091E10082FF0BC0B7
:105310008091E20082FF07C08091E1008B7F809343
:10532000E1000E9486258091DA0080FF1FC08091F5
:10533000D80080FF1BC08091DA008E7F8093DA0056
:105340008091D90080FF0DC080E189BD82E189BDD7
:1053500009B400FEFDCF81E080937E020E945F25AC
:1053600005C019BC10927E020E9471258091E10057
:1053700080FF19C08091E20080FF15C08091E2009B
:105380008E7F8093E2008091E20080618093E20052
:105390008091D80080628093D80019BC85E080930A
:1053A0007E020E947C258091E10084FF30C08091C4
:1053B000E20084FF2CC080E189BD82E189BD09B48F
:1053C00000FEFDCF8091D8008F7D8093D800809122
:1053D000E1008F7E8093E1008091E2008F7E8093D8
:1053E000E2008091E20081608093E20080917A0285
:1053F000882311F084E007C08091E30087FD02C09C
:1054000081E001C083E080937E020E94802580912C
:10541000E10083FF29C08091E20083FF25C08091D5
:10542000E100877F8093E10082E080937E0210920A
:105430007A028091E1008E7F8093E1008091E2000A
:105440008E7F8093E2008091E20080618093E20091
:1054500042E060E080E00E9472288091F000886065
:105460008093F0000E947825FF91EF91BF91AF915A
:105470009F918F917F916F915F914F913F912F916C
:105480000F900FBE0F901F9018951F920F920FB69E
:105490000F9211242F933F934F935F936F937F93BA
:1054A0008F939F93AF93BF93CF93DF93EF93FF932C
:1054B000C091E900CF708091EC00D82FD17080FDB1
:1054C000D0E81092E9008091F000877F8093F0008F
:1054D00078940E94892A1092E9008091F0008860F7
:1054E0008093F000CD2BCF70C093E900FF91EF9136
:1054F000DF91CF91BF91AF919F918F917F916F91EC
:105500005F914F913F912F910F900FBE0F901F9081
:1055100018951F93CF93DF93CDB7DEB7AA970FB639
:10552000F894DEBF0FBECDBFEFE7F2E088E08E0F4C
:105530009091F10091938E13FBCF0E94D62580911C
:10554000E80083FF28C180917F0290918002492F5B
:1055500050E04A30510508F01EC1FA01EC58FF4FE7
:105560000C94642C803821F0823809F014C108C0F2
:1055700080917B0290917C02992389F082600FC018
:10558000809183028F70873008F005C18093E90015
:105590008091EB0085FB882780F91092E9009091BB
:1055A000E800977F9093E8008093F1001092F1005B
:1055B000D0C0282F2D7F09F0EEC0882319F082304B
:1055C00061F0E9C080918102813009F0E4C093303C
:1055D00009F080E080937C022EC0809181028111CD
:1055E0002AC0809183028F702FEF280F263008F099
:1055F000D2C08093E9002091EB0020FF1CC09330C3
:1056000021F48091EB00806214C09091EB009061D6
:105610009093EB0021E030E0A90102C0440F551F38
:105620008A95E2F74093EA001092EA008091EB003D
:1056300088608093EB001092E9008091E800877FFA
:105640008093E8000E94A728A6C08111A4C01091F1
:1056500081021F778091E3008078812B8093E300A3
:105660008091E800877F8093E8000E94A7288091BE
:10567000E80080FFFCCF8091E30080688093E30026
:10568000111102C082E001C083E080937E0283C0DA
:105690008058823008F07FC0809181029091820210
:1056A0008C3D53E0950779F583E08A838AE289830C
:1056B0004FB7F894DE01139620E03EE051E2E32F6D
:1056C000F0E050935700E49120FF03C0E295EF70A3
:1056D0003F5FEF708E2F90E0EA3010F0C79601C068
:1056E000C0968D939D932F5F243149F74FBF8091D2
:1056F000E800877F8093E8006AE270E0CE010196BF
:105700000E94AE2715C06091830270918402AE01A1
:105710004F5F5F4F0E94DE26BC01892BE1F1909123
:10572000E800977F9093E80089819A810E94112870
:105730008091E8008B778093E8002DC0803859F580
:105740008091E800877F8093E80080917A028093BF
:10575000F1008091E8008E7773CF81111CC0909189
:1057600081029230C0F48091E800877F8093E80046
:1057700090937A020E94A72880917A02811106C034
:105780008091E30087FD02C081E001C084E0809346
:105790007E020E94C7258091E80083FF0AC08091A5
:1057A000E800877F8093E8008091EB00806280931F
:1057B000EB00AA960FB6F894DEBF0FBECDBFDF9107
:1057C000CF911F910895CF9380917E028823A1F0FD
:1057D000C091E900CF709091EC00892F817090FD0D
:1057E00080E8C82B1092E9008091E80083FD0E94B8
:1057F000892ACF70C093E900CF910895DB018F9380
:105800009F930E94792CBF91AF91A29F800D911D13
:10581000A39F900DB29F900D11240895991B79E0DC
:1058200004C0991F961708F0961B881F7A95C9F730
:1058300080950895AA1BBB1B51E107C0AA1FBB1F7F
:10584000A617B70710F0A61BB70B881F991F5A950C
:10585000A9F780959095BC01CD01089597FB072E7F
:1058600016F4009407D077FD09D00E941A2C07FC8B
:1058700005D03EF4909581959F4F08957095619560
:105880007F4F0895A1E21A2EAA1BBB1BFD010DC07C
:10589000AA1FBB1FEE1FFF1FA217B307E407F507E0
:1058A00020F0A21BB30BE40BF50B661F771F881FBC
:1058B000991F1A9469F760957095809590959B0152
:1058C000AC01BD01CF010895EE0FFF1F0590F491CB
:1058D000E02D0994A29FB001B39FC001A39F700D5A
:1058E000811D1124911DB29F700D811D1124911DE8
:1058F00008950E946A2CA59F900DB49F900DA49FBF
:10590000800D911D11240895F999FECF92BD81BD9E
:10591000F89A992780B50895A8E1B0E042E050E0F8
:105920000C94B82C262FF999FECF92BD81BDF89A20
:10593000019700B4021639F01FBA20BD0FB6F894D3
:10594000FA9AF99A0FBE08950396272F0E94932C76
:105950000E94922C252F0E94932C242F0C94932C80
:105960000196272F0E94932C0C94922CDC01CB01E2
:10597000FC01F999FECF06C0F2BDE1BDF89A31965F
:1059800000B40D9241505040B8F70895F894FFCFFD
:10599000160228083C071416241825ED24B7247C89
:1059A000240140C022A606E605C405690582059BC0
:0259B0000500F0
:00000001FF
