:100000000C9483030C94CA030C94CA030C94CA0383
:100010000C94CA030C94CA030C94CA030C94CA032C
:100020000C94CA030C94CA030C94D0280C94A229F3
:100030000C94731E0C94CA030C94CA030C94CA0348
:100040000C94CA030C94CA030C94CA030C94CA03FC
:100050000C94CA030C94C01E0C94CA030C94CA03DB
:100060000C94CA030C94CA030C94CA030C94CA03DC
:100070000C94CA030C94CA030C94CA030C94CA03CC
:100080000C94CA030C94CA030C94CA030C94CA03BC
:100090000C94CA030C94CA030C94CA030C94CA03AC
:1000A0000C94CA030C94CA030C94CA0378137813F3
:1000B000AA13AA13F0130E142E152E151914AE142C
:1000C000BF14BF141E152E152E152715DC15DC15B3
:1000D000EE15EE15E515EE15EE15EE15DC15DC1535
:1000E000EA15EE15EE15EA150F2A362A2E2B362ABA
:1000F0002E2B822AA52A2E2BFC2A0B2B0A00253018
:10010000313662003A200025303258000A722F63DF
:100110002030313233343536373839414243444563
:10012000460A006D63703233303137206465617484
:100130007461636865642121210A006D6370323344
:100140003031372061747461636865642121210A4C
:100150000035001E001F002000210022002602277B
:1001600002230024002500260027002D002B001468
:10017000001A000800150017002F002D001C0018A1
:10018000000C001200130031002961040016000762
:100190000009000A00000000000B000D000E000F17
:1001A0000033003400E1001D001B000600190005AB
:1001B0000030002E0011001000360037003800E536
:1001C00000E000E2000000E200E3000000000000A8
:1001D0000000005000510052004F00015100002A61
:1001E000412B424D004A006564E300E20029614B67
:1001F000004E0028422C41000000003A003B003C29
:10020000003D003E00010001003F0040004100426F
:10021000004300440001001E021F022F0230023181
:1002200002010001000100AC005200AB000100011E
:1002300000010020022102260227023500000000F2
:1002400000AE00500051004F0001000100010022EB
:100250000223022F003000350201000100A800AA8D
:1002600000A900010001000100DF5C0100010001A4
:10027000000100000000000000000001000100017A
:1002800000010001000000CB5CCA5C01000100C459
:100290005C0100C35CCE5C01000100C75CC65C0071
:1002A0000001000100010001000100010001000146
:1002B0000001000100010001000100010001000136
:1002C000000100F000010001000100010001005FD9
:1002D00000600061000100010001000100F200F176
:1002E00000F30001000000000001005C005D005E02
:1002F00000010001000100010001000100010001F6
:100300000001000100010059005A005B00010001DA
:1003100000010001000100F400F5000000000000F1
:1003200000000001000100010001000100000001C7
:1003300000010001000100010001000100010001B5
:1003400000010001000100000044454255473A20E9
:1003500064697361626C65642E0A004445425547C6
:100360003A20656E61626C65642E0A006261636B9F
:100370006C6967687420737465703A2025750A008B
:100380006261636B6C696768742064697361626C35
:10039000650A006261636B6C6967687420656E61F1
:1003A000626C650A006261636B6C696768742074D3
:1003B0006F67676C653A2025750A006261636B6C34
:1003C000696768742064656372656173653A2025A6
:1003D000750A006261636B6C6967687420696E639B
:1003E00072656173653A2025750A00556E69636F01
:1003F000646520696E707574206D6F646520736527
:100400007420746F3A2025750A00556E69636F6415
:100410006520696E707574206D6F646520696E6902
:100420007420746F3A2025750A000A00253032586E
:1004300020006B6579626F6172645F7265706F72C4
:10044000743A20000A0025303258006B6579626FDB
:100450006172645F7365745F6C65643A2000646503
:100460006C5F6B65795F6269743A2063616E2774B3
:100470002064656C3A20253032580A006164645F5C
:100480006B65795F6269743A2063616E27742061DD
:1004900064643A20253032580A00646F6E652E0A73
:1004A00000626F6F746D61676963207363616E3A98
:1004B000202E2E2E2000290A002575002F002575DC
:1004C000005D2800256400200025640020002564CC
:1004D0000020002564007C0025303258006D6F75C7
:1004E00073656B6579205B62746E7C782079207609
:1004F00020685D287265702F61636C293A205B006B
:100500005B735D004B6579626F6172642073746127
:1005100072742E0A005B575D005B535D005B525D99
:10052000005B445D005B435D00280345007200678B
:10053000006F0044006F0078002000370036002074
:1005400000220048006F00740044006F0078002211
:10055000000000220341006C007000610063006134
:100560000020004B006500790062006F006100729E
:10057000006400730000000403090409025B000327
:100580000100A0FA09040000010301010009211182
:100590000100012240000705810308000A09040147
:1005A00000010300000009211101000122BC000725
:1005B00005820320000A090402000203000000096A
:1005C00021110100012222000705830320000107F9
:1005D00005030320000112011001000000084B4137
:1005E00001000100010200010631FF0974A10109A7
:1005F00075150026FF009520750881020976150003
:1006000026FF00952075089102C005010902A1018D
:1006100085020901A1000509190129051500250117
:100620009505750181029501750381010501093068
:1006300009311581257F95027508810609381581D4
:10064000257F950175088106050C0A38021581255C
:100650007F950175088106C0C005010980A101854B
:100660000319012AB700150126B7009501751081FD
:1006700000C0050C0901A101850419012AA0021579
:100680000126A002950175108100C005010906A18F
:10069000018505050719E029E7150025019508756D
:1006A0000181020507190029EF1500250195F07554
:1006B0000181020508190129059505750191029529
:1006C0000175039101C005010906A101050719E0A3
:1006D00029E7150025019508750181029501750826
:1006E00081010507190029FF150026FF00950675F1
:1006F00008810005081901290595057501910295E4
:100700000175039101C011241FBECFEFDAE0DEBFF7
:10071000CDBF04B603FE27C08091EA029091EB02A0
:10072000A091EC02B091ED028730904BA740B04B06
:10073000D1F41092EA021092EB021092EC021092A5
:10074000ED0214BE84B7877F84BF0FB6F894A895D6
:1007500080916000886180936000109260000FBEFD
:10076000E0E0F8E3099511E0A0E0B1E0E6E5F8E5A6
:1007700002C005900D92A438B107D9F722E0A4E891
:10078000B1E001C01D92AA3EB207E1F70E94072620
:100790000C94292C0C940000FF93EF93E0918401BA
:1007A000F0918501309709F00995EF91FF91089537
:1007B000FC018591803011F0EFDFFBCF0895FF271A
:1007C000E0E230E247FF0CC0419597FF09C0EDE23F
:1007D0006095709580959095611D711D811D911D8D
:1007E00027FF02C0219530E350E2AA27660F771F4A
:1007F000881F991FAA1FA41710F0A41B63955A9570
:10080000A9F7AA3008F0A95FA05DAF93F395611531
:1008100071058105910541F7ED3211F4EF93F395E0
:10082000F21718F43F93F395FBCF8F91B5DFFA954C
:10083000E1F70895E991F9918591803021F08532B1
:1008400019F0AADFF9CF089520E0E89455915532C8
:10085000C1F3503311F4689455915A3348F450530E
:1008600090F3220F022E220F220F200D250FF4CF1E
:100870000EF4219589919991533619F3533729F143
:10088000533559F1BC0188279927E8945C3621F447
:100890008991999168945591543639F446EF7EF0D8
:1008A00077FF0DC08FEF9FEF0AC055374AE039F050
:1008B000583540E121F0523642E009F00895FF93A7
:1008C000EF937DDFEF91FF91B7CFFF93EF93FC01A3
:1008D00081918030B9F360DFFBCFFF93EF9368DF46
:1008E000F1CFDF93CF93CDB7DEB72596A3DFCF91BE
:1008F000DF91089580B38C7080BB81B38C7081BB15
:100900000C94DD0684B1807F84B985B18F6085B990
:100910008AB1837F8AB98BB18C608BB93E98469A35
:100920000C94230708950C9492040C9492040E9452
:100930007A040E948204EAEDF1E086E891E01192E7
:100940001192DC012EE01D922150E9F70E9621E074
:100950008A3D9207A1F70C947C080E947A040E94B9
:100960008204EAEDF1E01182108213821282158274
:1009700014821782168211861086138612860895B5
:100980002EE0829FC0011124FC01EA57FE4F20E0B7
:1009900030E040E050E061E070E09081992319F090
:1009A0009150908309C0CB01022E02C0880F991F7D
:1009B0000A94E2F7482B592B2F5F3F4F31962E3088
:1009C000310559F7CA010895CF932EE0629FB00117
:1009D000112420E030E0A1E0B0E0C5E0AD01022E3E
:1009E00002C0440F551F0A94E2F748235923452BB0
:1009F00031F0FB01E20FF31FEA57FE4FC0832F5F78
:100A00003F4F2E30310551F7CF910895CF92DF92AD
:100A1000EF92FF920F931F93CF930E94FF068AEDF0
:100A2000E82E81E0F82EC0E0C33091F038F4C130F8
:100A300091F0C23099F4859A8D9812C0C43029F093
:100A4000C53061F4809A88980BC0819A899808C053
:100A5000849A8C9805C0869A8E9802C0879A8F983F
:100A60008C2F0E94E10680EA8A95F1F78C2F0E9474
:100A7000C0046C010E945907282F30E0369903C04A
:100A800000E810E002C000E010E04B9903C080E0F5
:100A900091E002C080E090E0082B192B4A9903C036
:100AA00080E092E002C080E090E0082B192B1B99B7
:100AB00003C040E054E002C040E050E0042B152B9E
:100AC0001A9903C060E078E002C060E070E0062B95
:100AD000172B199903C080E090E102C080E090E0FC
:100AE000082B192B189903C040E050E202C040E0E7
:100AF00050E0F70180819181042B152B022B132BE1
:100B0000082719270C211D21082719276C2F80275A
:100B100091270E94E404F701019311937F010E9441
:100B20007A04CF5FC63009F07FCF0E94880881E049
:100B3000CF911F910F91FF90EF90DF90CF9008958C
:100B4000E82FF0E0EE0FFF1FE652FE4F808191810B
:100B50000895CF92DF92EF92FF920F931F93CF935E
:100B6000DF938CE091E00E94D8038AEDE82E81E0CB
:100B7000F82EC0E0D0E097E0C92E91E0D92E0EEF1C
:100B800010E0DF93CF93DF92CF920E94710484E054
:100B900091E00E94D803F701819191917F010E9419
:100BA000641C9F938F931F930F930E9471048CEF8B
:100BB00090E00E94D80321968DB79EB708960FB695
:100BC000F8949EBF0FBE8DBFC630D105D1F6DF9120
:100BD000CF911F910F91FF90EF90DF90CF900895EC
:100BE0001092B9008CE08093B8000895EF92FF92C4
:100BF0000F931F93CF93DF93182FEB011092BC003C
:100C000084EA8093BC000E94A51E7C018091BC00F8
:100C100087FD0EC0CF3F8FEFD807C1F30E94A51EFE
:100C20008E199F098C179D0788F38EEF9FEF2EC0BA
:100C30008091B900887F883041F08091B900887F29
:100C4000803119F08FEF9FEF21C01093BB0084E833
:100C50008093BC000E94A51E8C018091BC0087FD82
:100C60000CC0CF3F8FEFD807C1F30E94A51E801B99
:100C7000910B8C179D0788F3D8CF8091B900887F9E
:100C8000883111F08034F1F680E090E0DF91CF916F
:100C90001F910F91FF90EF9008950F931F93CF93A3
:100CA000DF93EB018093BB0084E88093BC000E943B
:100CB000A51E8C018091BC0087FD0EC0CF3F8FEF39
:100CC000D807C1F30E94A51E801B910B8C179D07AE
:100CD00088F38EEF9FEF0CC02091B900287F81E050
:100CE00090E0283211F480E090E09195819591098F
:100CF000DF91CF911F910F9108950F931F93CF9381
:100D0000DF93EC0184E88093BC000E94A51E8C0157
:100D10008091BC0087FD0EC0CF3F8FEFD807C1F395
:100D20000E94A51E801B910B8C179D0788F38EEFE8
:100D30009FEF03C08091BB0090E0DF91CF911F91A6
:100D40000F91089584E98093BC0008951092E60104
:100D50000E94F0052FEF83ED90E3215080409040FA
:100D6000E1F700C0000080E008951F93CF93DF9368
:100D70009091E6019923E1F0D62F182F64E670E0F8
:100D800080E40E94F605C82F81110EC064E670E071
:100D9000812F0E944D06C82F811106C064E670E0C5
:100DA0008D2F0E944D06C82F0E94A2068C2F01C0D5
:100DB00080E0DF91CF911F9108956FE381E00C9463
:100DC000B50661E070E001C0660F8A95EAF76095AC
:100DD00081E00C94B5066FE780E00E94B5066FE7EE
:100DE00082E00E94B5066FE78CE00E94B5066FEFC7
:100DF00081E00E94B50660EC83E10C94B50664E6E0
:100E000070E080E40E94F605811110C00E94A206E5
:100E10008091E601811116C081E08093E6010E9475
:100E2000EB060E94CA158BE391E00AC08091E601AF
:100E3000882341F01092E6010E94CA1583E291E0F6
:100E40000C94D80308950E94A6060C94FF060F93F5
:100E50001F93CF93DF939091E601992321F18B01AA
:100E6000D82F64E670E080E40E94F605C82F811157
:100E700016C064E670E08D2F0E944D06C82F8111C8
:100E80000EC064E670E081E40E94F605C82F81116F
:100E900006C084E690E00E947D06F80180830E94EF
:100EA000A2068C2F01C080E0DF91CF911F910F919E
:100EB0000895CF93DF931F92CDB7DEB71982BE019D
:100EC0006F5F7F4F82E10E94270789810F90DF913A
:100ED000CF910895279A2F98259A2D9A269A2E9A7F
:100EE000249A2C9A259A2D982FEF80E792E0215092
:100EF00080409040E1F700C00000269A2E982FEF26
:100F000080E792E0215080409040E1F700C000006F
:100F1000249A2C982FEF80E792E021508040904057
:100F2000E1F700C00000259A2D9A2FEF80E792E0AC
:100F3000215080409040E1F700C00000269A2E9A90
:100F40002FEF80E792E0215080409040E1F700C011
:100F50000000249A2C9A279A2F9A259A2D98269A3F
:100F60002E98249A2C982FE782E490E1215080401B
:100F70009040E1F700C00000279A2F98259A2D9AFB
:100F8000269A2E9A249A2C9A08950E946A070C9405
:100F900093049C013A9521153F4138F5DC01AA27BD
:100FA000B270AC01442754709C012227387094FF22
:100FB0000FC090FF02C080E101C080E0AB2B09F0C0
:100FC0008062452B09F08064232B69F080680BC098
:100FD000892F8170AB2B09F08260452B09F084606A
:100FE000232B09F08860FB0109940895CF93DF93C8
:100FF000EC01805E9109089710F0209719F464E3E2
:1010000073E102C062EA75E1CE010E94C9078C2F2C
:10101000DF91CF910C940F12CF93DF93EC010E94DC
:10102000B912CE01805E9109089710F0209719F44B
:101030006BE373E102C069EA75E1CE01DF91CF9104
:101040000C94C907CF93DF93EC010E94F607CE0101
:10105000DF91CF910C940C0881E0089581E0089510
:101060000C942E0808950C9432081F93CF93DF93AD
:1010700000D000D01F92CDB7DEB749835A836B836F
:101080003091FE0189819A81311114C0662359F093
:10109000222349F00E94181B182F682F89819A81FA
:1010A0000E94C11A03C00E94EC1A182F69817A812C
:1010B000812F04C00E94181B69817A810F900F90C4
:1010C0000F900F900F90DF91CF911F910C942209F8
:1010D000FC01262F408151816281738184810C94AF
:1010E0003508CF93DF93EC0160E00E946808BE01F1
:1010F000DF91CF910C9433080E94771C811102C0BC
:101100000E94311D0E94110D0E94360D0C94C507DE
:101110000C949504282F2F7041F0822F90E02A30F4
:1011200010F44D9608950697089587E290E008958B
:1011300008950E94CA150E9498082FEF84E39CE04E
:10114000215080409040E1F700C000000C94E61E62
:101150000F931F93CF93DF93EC0161E00E94680827
:101160008C01BE010E943008882309F450C0BE01E2
:10117000C8010E94720C882309F449C0BE01C8014D
:101180000E94D30D882309F442C0BE01C8010E9409
:10119000870E8823E1F1BE01C8010E94D90E882381
:1011A000B1F1BE01C8010E940410882381F18A8137
:1011B000882331F101308CE5180751F00F3D8CE5A3
:1011C0001807D9F001151C45D9F40E9499081FC0D1
:1011D00080919B02C82FC095C170C0FB80F980939D
:1011E0009B02CC2329F08BE593E00E94D8030FC02B
:1011F00089E493E00E94D8030BC00E94311D07C010
:10120000CE01DF91CF911F910F910C942C08C0E07B
:101210008C2FDF91CF911F910F91089508950C9419
:101220000E0981E008950C941109CF93C82F0E94F4
:101230000F098C2F0E941309CF91089580E090E050
:101240000895089524E5829FC0011124FC012EE039
:10125000729FE00DF11D1124E60FF11DEE0FFF1F2F
:10126000EF5AFE4F859194910895880F991FFC01C4
:10127000E459FC4F859194910895CF93DF930E9498
:1012800022090E94550AEC018115904508F041C0E1
:10129000C11580E4D80708F0D1C0C83ED10510F5CB
:1012A000C03ED10508F0FDC0C83AD10578F4C53A72
:1012B000D10508F0A2C0C130D10509F4F2C008F48C
:1012C000EEC0C430D10508F0ECC0E9C0CF3BD10579
:1012D00008F49BC0C03CD10508F4E1C0CE01805C9D
:1012E00091099EC0C11590E2D90758F4C11521E0BB
:1012F000D20708F0D6C0C03FD10508F4D0C0D065F1
:10130000D0C0C11580E3D80708F08EC0CE019F7011
:1013100087C0C11595E5D90708F043C0C11524E57C
:10132000D20708F0A2C0C11582E5D80708F5C1159B
:1013300091E5D90708F085C0CE0174E096958795B0
:101340007A95E1F783709C2F937021E030E002C022
:10135000220F331F9A95E2F73C68382BCF70C69561
:10136000C69580E2C89FE0011124C22BD32B99C0FF
:101370009E01237033278C2F86958695C115D34502
:1013800008F064C0C1E0D0E002C0CC0FDD1F2A9598
:10139000E2F720E2829FC0011124C82BD92BDC6820
:1013A00080C0C11529E5D207A0F4C11588E5D8078A
:1013B00008F060C0C11596E5D90708F070C08C2F01
:1013C0000E94E90A8F71C82FD0E0DC2FCC27D062B1
:1013D00068C0C1152AE5D20708F451C0CE01905665
:1013E0008115904208F05BC08D2F8F710E94E90A31
:1013F000DD27D0628F71D82B54C0C55AD0E0CF5BA7
:10140000DE4FC881D0E0D0644CC0C85AD0E0CC0FC9
:10141000DD1FCD5EDE4F0990D881C02DD46441C060
:101420000E943509EC013DC0CE019927D3FF03C0CE
:10143000EC01D86C36C0EC01D06C33C0DF70D06AE0
:1014400030C0DC2FCC27C16FD06A2BC0C1E0D0E008
:1014500002C0CC0FDD1F2A95E2F720E2829FC00177
:101460001124C82BD92BDA681CC0DC2FCC27C46F01
:10147000D06A17C0DC2FCC27C06FD06A12C08C2F67
:101480008F700E94E90A94E0D695C7959A95E1F786
:10149000CF70D0E0DC2FCC27D069C82B02C0C0E0D1
:1014A000D0E0CE01DF91CF9108958238910569F1A6
:1014B000B0F48133910509F46DC048F48932910587
:1014C00009F463C08A32910509F469C0089585332F
:1014D000910509F455C089339105B9F00895833E0B
:1014E000910569F138F4803E9105B1F0823E910595
:1014F00009F10895863E9105A9F1873E9105B9F15C
:10150000843E910509F064C023C02091DB0220FDD8
:101510004FC021FD4DC008958091DB0280FD44C085
:101520008091DC0280FF44C08091DB0284FD42C0D8
:1015300083EE4DC08091DB0282FF38C0F5CF8091F1
:10154000DB0282FD33C08091DC0280FD31C0ECCF34
:101550008091DC0281FF32C08091DB0284FD2AC0D1
:1015600087EE35C08091DB0283FF26C0F5CF8091E6
:10157000DB0283FD21C08091DC0281FD1FC0ECCF26
:101580008091DB0285FD1CC01DC08091DB0285FDC2
:1015900019C016C08091DB0286FD16C017C080916D
:1015A000DB0286FD13C010C089E311C082EE0FC0BC
:1015B00080EE0DC080E00BC086EE09C084EE07C04F
:1015C00089E205C085E303C08AE201C081E390E0BF
:1015D00008959091DB0292FF0DC0282F28712830CA
:1015E00019F4877F846006C0282F2471243011F4F9
:1015F0008B7F886093FF0DC0282F2871283119F444
:10160000877E846106C0282F2471243111F48B7EDB
:1016100088612091DC0220FF0DC0382F38713830EE
:1016200019F4877F816006C0382F3171313011F491
:101630008E7F886021FF0DC0282F2871283119F472
:10164000877E816106C0282F2171213111F48E7EA1
:10165000886194FD877E08950E94771C811102C0E5
:101660000E94311D0E94B21C8093D102282F269522
:101670002695269530E02430310524F08770886166
:101680008093D1028091D10280FF04C08695869517
:10169000869501C080E00C94A70C2091D102822F86
:1016A000869586958695482F50E04330510554F431
:1016B0008F5F982F990F990F990F822F8770892B21
:1016C0008093D1028091D10281608093D1020E94E7
:1016D000B61C80919B0280FF11C08091D10286953B
:1016E000869586951F928F9383ED93E09F938F93BA
:1016F0000E9471040F900F900F900F908091D10273
:101700008695869586950C94A70C8091D102982F8A
:10171000969596959695A1F0915E990F990F990FD0
:101720008770892B8093D102887F91E009F490E043
:101730008091D10290FB80F98093D1020E94B61C67
:1017400080919B0280FF11C08091D1028695869581
:1017500086951F928F938BEB93E09F938F930E94BC
:1017600071040F900F900F900F908091D102869589
:10177000869586950C94A70C8091D10280FD1FC0A0
:1017800081608093D102813019F489E08093D10285
:101790008091D1020E94B61C80919B0280FF08C0FC
:1017A00083E993E09F938F930E9471040F900F90B1
:1017B0008091D1028695869586950C94A70C089504
:1017C0008091D10280FF14C08E7F8093D1020E944D
:1017D000B61C80919B0280FF08C080E893E09F9335
:1017E0008F930E9471040F900F9080E00C94A70CCF
:1017F0000895CF93C091D102C17080919B0280FF68
:101800000CC01F92CF9385EA93E09F938F930E9421
:1018100071040F900F900F900F90CC2319F0CF917F
:101820000C94E00BCF910C94BC0B9091D102892FBA
:101830008695869586958F5F8F719770843038F482
:10184000880F880F880F892B8093D10202C0909354
:10185000D1028091D102887F91E009F490E08091DB
:10186000D10290FB80F98093D1020E94B61C809136
:101870009B0280FF11C08091D10286958695869546
:101880001F928F938CE693E09F938F930E94710435
:101890000F900F900F900F908091D10286958695B2
:1018A00086950C94A70C843008F083E09091D102C7
:1018B0009770282F220F220F220F922B9093D10284
:1018C000987F21E009F420E09091D10220FB90F96B
:1018D0009093D1020C94A70C0E94530C8091D102DA
:1018E0000C94B61C9C01FB018281882349F12E3B9C
:1018F000FCE53F07C9F040F42C3BECE53E0769F0FE
:101900002D3B3C4561F00895203C9CE5390791F062
:1019100070F0213C3C4589F0089583E001C080E0EF
:101920000E946C0C80E008950E94850BFBCF0E9402
:101930004D0BF8CF0E94F90BF5CF0E94150CF2CF9A
:1019400081E00895279A2F9808952F980895CF92AF
:10195000DF92EF92FF92CF93C82F843050F4811121
:1019600009C080918000877F809380000E94A50C31
:1019700006C0C3E0809180008860809380002C2F97
:1019800030E0AFEFBFEF0E94CD2B23E030E040E02E
:1019900050E00E94A52BB42FA32F922F8827492F08
:1019A0005A2F6B2F7727CA014C3724E1520728F4AE
:1019B00069E070E00E947D2B29C0DB01CA018A50DA
:1019C000974DAF4FBF4F6627782F892F9A2F25EF5E
:1019D00038E241E050E00E94A52B69017A01CA017A
:1019E000B9010E94612B9B01AC01C701B6010E94A5
:1019F000612BBB27A92F982F872F009721E0A207E3
:101A0000B10511F0BC0102C06FEF7FEF70938D0044
:101A100060938C00CF91FF90EF90DF90CF9008956E
:101A200008950E94A20C8AE08093800089E180934F
:101A300081008FEF9FEF90938700809386000C9436
:101A40002C0BCF93DF9397FF0DC0FB012281222344
:101A500049F0EC010E94750DCE019F770E94B60DF2
:101A60000E949F0D81E0DF91CF9108958CE090E07E
:101A70000E94E72B90E0A0E0B0E08093D202909328
:101A8000D302A093D402B093D50280919B0280FF31
:101A90000EC08091D2021F928F938AE094E09F93B0
:101AA0008F930E9471040F900F900F900F900895E4
:101AB0006091D2028CE090E00C94F52B8093D202DE
:101AC0000E94580D80919B0280FF0EC08091D2022F
:101AD0001F928F938BEE93E09F938F930E947104DC
:101AE0000F900F900F900F9008950E94991B809374
:101AF000D6020E94AC1B8091D202813071F048F076
:101B0000823081F08430A1F486EE0E94211388E1B6
:101B10000DC082EE0E940F120BC088E193E00E947C
:101B2000220806C082EE0E940F1287E50E94211350
:101B30008FE39CE90197F1F700C0000008958091C0
:101B4000D202813039F040F0823031F0843051F4EB
:101B500088E206C08CE204C082EE0E94B91202C084
:101B60000E9421138091D6020C94A91B0F931F93FE
:101B7000CF93DF938C01CCE0D0E0C8010C2E02C0E3
:101B8000969587950A94E2F78F700E948A080E94C2
:101B900022082497CC3F8FEFD80779F7DF91CF91B8
:101BA0001F910F9108950F931F93CF93DF93EC0133
:101BB0008B01FB018281882351F00E94991BCE0189
:101BC000825E9C458530910510F40E945E0DB8013F
:101BD000CE01DF91CF911F910F910C94210DAF9207
:101BE000BF92CF92DF92EF92FF920F931F93CF930A
:101BF000DF937C015B01C42FD22FFC0182818823FB
:101C0000F9F04093E9010E94A51E9093E8018093AA
:101C1000E70180E28C0F883008F06EC0C77081E069
:101C200001C0880FCA95EAF7DF91CF911F910F91FC
:101C3000FF90EF90DF90CF90BF90AF900C94341353
:101C40008091E901481335C08091E7019091E80146
:101C50000E94B11E6C01B701C5010E948318C8160D
:101C6000D90638F510E21D0FCD17B9F080E28C0FC0
:101C7000883040F4C77081E001C0880FCA95EAF748
:101C80000E943B13183058F581E09D2F977001C0DA
:101C9000880F9A95EAF70E943413802F0E9421132F
:101CA000183050F5D77081E001C0880FDA95EAF757
:101CB0000AC080E28C0F8830F8F4C77081E001C060
:101CC000880FCA95EAF7DF91CF911F910F91FF908E
:101CD000EF90DF90CF90BF90AF900C943B13802F8C
:101CE000DF91CF911F910F91FF90EF90DF90CF90F8
:101CF000BF90AF900C942113DF91CF911F910F9162
:101D0000FF90EF90DF90CF90BF90AF9008950F932A
:101D10009C01CB01243F4CE5340731F188F4293D87
:101D2000FCE53F07D9F02A3D4CE5340779F1283D21
:101D30003C45A9F506E221EE41EE68ED7CE52BC0BD
:101D4000263FFCE53F07E1F0A8F0273F3C4539F589
:101D500007E225EE46EE67EF7CE51DC007E225EEC3
:101D600045EE69ED7CE517C006E221EE40EE64EF3A
:101D70007CE511C007E225EE44EE65EF7CE50BC083
:101D800006E221EE42EE66EF7CE505C008E221E0C6
:101D900045EE6AED7CE50E94EF0D80E008C0FC0195
:101DA0008281882319F01092E90101C081E00F912E
:101DB0000895CF93DF93EC01FB018281882309F41E
:101DC0001FC1C230FCE5DF0708F41BC1C6319CE52A
:101DD000D90738F09E012B5F3C452930310508F0CA
:101DE00010C10E94941C9093DC028093DB02C031EE
:101DF000ECE5DE0709F4C3C008F041C0C8308CE54B
:101E0000D80709F49AC0F0F4C430ECE5DE0709F411
:101E100087C068F4C2308CE5D80709F477C0C330B6
:101E2000DC4509F0E3C08091DB02826076C0C630F9
:101E3000ECE5DE0709F46EC008F07BC08091DB02A0
:101E400088606BC0CC308CE5D80709F485C068F495
:101E5000CA30ECE5DE0709F474C008F079C00E94CE
:101E6000CA158091DB02806858C0CE308CE5D80757
:101E700009F476C008F07FC08091DB028BC0CC3FB4
:101E8000ECE5DE0709F44FC018F5C3318CE5D8073F
:101E900009F47DC078F4C131ECE5DE0709F473C0C4
:101EA000C231DC4509F0A2C00E94CA158091DB0254
:101EB0008F7733C0C5318CE5D80709F472C008F4B8
:101EC00086C0CB3FDC4509F091C08091DC023EC06A
:101ED000C115FDE5DF0709F45FC058F4CE3F9CE56E
:101EE000D90709F444C008F43FC08091DC02826045
:101EF0002DC0C230FDE5DF0709F475C008F45DC0F0
:101F0000C330DD4509F072C080E06EC08091DB0215
:101F1000816003C08091DB0280618093DB0266C038
:101F20008091DB0211C08091DC0282608093DC0230
:101F30005DC08091DB028062F0CF8091DB02806423
:101F4000ECCF8091DB0288608460E7CF8160EECFC8
:101F50008091DB028E7FE1CF8091DB028D7FDDCF30
:101F60008091DB02877FD9CF8091DC0218C08091FD
:101F7000DC028D7FDBCF8091DB028F7ECECF809124
:101F8000DB028F7DCACF8091DB028F7BC6CF809131
:101F9000DB02877F8B7FC1CF8091DC028D7F8E7FBC
:101FA000C5CF8091DB0282FB222720F991E09227A6
:101FB00090FB82F990FB83F9B0CF8091DC02982FDF
:101FC000909591708E7F892B90FB81F9AFCF0E9405
:101FD000CA158091DB0287FB222720F991E0922726
:101FE00090FB87F99ACF81E00E94331D8091DB023C
:101FF0009091DC020E94A51C0E94CA1580E001C0DD
:1020000081E0DF91CF910895CF93DF9386319C4596
:1020100041F5EB010E94991B982F8A8120910001C4
:1020200030910101882379F09A7A81E009F480E007
:102030008093EA01911102C069E201C065E3C90120
:102040000E94F01D0AC08091EA01811102C069E27C
:1020500001C065E3C9010E94FB1D0E94EA1B80E0EC
:1020600001C081E0DF91CF9108959093F0018093BA
:10207000EF010895E091EF01F091F001309721F028
:102080000190F081E02D099480E00895EF92FF9295
:102090001F93CF93DF93FC01A091EF01B091F0016A
:1020A000109709F442C080911201882341F0809179
:1020B000DB0287FF04C08081818385E08083EF019C
:1020C0001296ED91FC911397CE01099580919B0298
:1020D00082FF2BC080FF04C082E394E00E94D803FB
:1020E00018E08CE2E82E84E0F82E80919B0280FFBD
:1020F0000BC088811F928F93FF92EF920E94710410
:102100000F900F900F900F90115021961111EDCF5D
:1021100080919B0280FF09C08AE294E0DF91CF9119
:102120001F91FF90EF900C94D803DF91CF911F91F6
:10213000FF90EF900895E091EF01F091F00130975A
:1021400039F022E0DC012C930480F581E02D099424
:1021500008952091ED013091EE012817390771F0B3
:102160009093EE018093ED01E091EF01F091F00189
:10217000309721F00680F781E02D09940895209191
:10218000EB013091EC012817390771F09093EC01C5
:102190008093EB01E091EF01F091F001309721F095
:1021A0000084F185E02D0994089585B7806885BF86
:1021B00085B7806885BF089581E008950C94DC1090
:1021C00008950C94E0100C94E0100C94E3100C941F
:1021D000E0100C94E7100C94E0100E94D5100E94BF
:1021E000EB100C94E9100E949C1E0E9497040E9420
:1021F000561F0E942C0B0C94E510CF93C82F809192
:102200009B0282FF1EC080FF04C08BE494E00E940A
:10221000D80380919B0280FF0CC01F92CF9386E46D
:1022200094E09F938F930E9471040F900F900F90F2
:102230000F9080919B0280FF04C084E494E00E9490
:10224000D8038C2FCF910C9415097F928F929F9277
:10225000AF92BF92CF92DF92EF92FF920F931F93B4
:10226000CF93DF93CDB7DEB72A970FB6F894DEBFD2
:102270000FBECDBF0E94E1100E94E0100E94060533
:102280000E94DE10811111C08FEF89838A831B8227
:102290000E94A51E8160782F9D838C8349815A817D
:1022A0006B818D810E94DB114FC042EFA42E41E073
:1022B000B42E00E010E0702E802F0E94A0056C016B
:1022C000F501819091905F018826992681149104EF
:1022D00031F40F5F1F4F0630110569F7D5CF80919C
:1022E0009B0281FD0E94A90580E0EE24E394F12C7D
:1022F00094012E213F21232B09F18E837F82CE2052
:10230000DF2081E0CD2809F480E088870E94A51EA7
:102310008160782F9A8789874E815F8168858A8559
:102320000E94DB11000F111FF801EE50FE4F80815B
:102330009181E826F926F182E08206C08F5FEE0CDB
:10234000FF1C8E30A9F6C5CF0E94100D0E94B1224D
:102350000E943A109091F1018917C9F00E943A1039
:102360008093F1012A960FB6F894DEBF0FBECDBF61
:10237000DF91CF911F910F91FF90EF90DF90CF9061
:10238000BF90AF909F908F907F900C94FD102A96F5
:102390000FB6F894DEBF0FBECDBFDF91CF911F9176
:1023A0000F91FF90EF90DF90CF90BF90AF909F90F4
:1023B0008F907F900895CF93DF93CDB7DEB72B97A3
:1023C0000FB6F894DEBF0FBECDBF4F835887698725
:1023D0007A878B87DE01119686E0FD0111928A953E
:1023E000E9F785E0FE01379601900D928A95E1F7B5
:1023F00049815A816B817C818D819E810E948618E2
:102400002B960FB6F894DEBF0FBECDBFDF91CF91F4
:102410000895FC01808191810E945A1B0895CF93F9
:10242000882309F4A4C0C82F8238C1F40E943A104E
:1024300081FD9DC069E380910001909101010E949E
:10244000F01D0E94EA1B2FEF81EE94E021508040A6
:102450009040E1F700C0000069E319C0833801F53E
:102460000E943A1080FD83C063E580910001909145
:1024700001010E94F01D0E94EA1B2FEF81EE94E003
:10248000215080409040E1F700C0000063E580915A
:102490000001909101010E94FB1DCF910C94EA1B59
:1024A0008438C1F40E943A1082FD61C067E48091D3
:1024B0000001909101010E94F01D0E94EA1B2FEF84
:1024C00081EE94E0215080409040E1F700C0000090
:1024D00067E4DDCF8CEF8C0F813AD0F46C2F8091C4
:1024E0000001909101010E944E1D882349F06C2F3C
:1024F00080910001909101010E94FB1D0E94EA1B46
:102500006C2F80910001909101010E94F01DC5CFB8
:1025100080E28C0F883048F4C77081E001C0880FDA
:10252000CA95EAF70E949C1BB8CFEBE5EC0FE330AD
:1025300040F4F0E0EE58FE4F808190E0CF910C9493
:10254000A910E8E5EC0FE73150F4F0E0EE0FFF1FC3
:10255000EC5BFE4F80819181CF910C94BF10C03F06
:1025600030F08C2F0E942421CF910C941122CF9116
:102570000895882309F464C0823879F40E943A10DF
:1025800081FF5EC069E380910001909101010E948A
:10259000F01D0E94EA1B69E310C08338B1F40E9469
:1025A0003A1080FF4DC063E58091000190910101D8
:1025B0000E94F01D0E94EA1B63E58091000190914A
:1025C00001010E94FB1D0C94EA1B843879F40E94DF
:1025D0003A1082FF35C067E48091000190910101BB
:1025E0000E94F01D0E94EA1B67E4E7CF9CEF980F62
:1025F000913A10F4682FE1CF90E2980F983050F4A0
:10260000877091E001C0990F8A95EAF7892F0E949F
:10261000A21BD9CF9BE5980F933020F480E090E087
:102620000C94A91098E5980F973120F480E090E081
:102630000C94BF10803F20F00E948C210C9411223A
:102640000895CF93C82F0E940F12C93349F42FEF7A
:1026500087EE93E0215080409040E1F700C00000F9
:102660008C2FCF910C94B912882321F00E949C1BCF
:102670000C94EA1B0895882321F00E94A21B0C945D
:10268000EA1B0895CF92DF92EF92FF920F931F9370
:10269000CF93DF937C01062FC72FFC011581129584
:1026A0001F70D281D1110E94BC1B0E94921B8823F3
:1026B00099F0DD2389F08C2F807F803421F080E237
:1026C000800F883048F082E00E94341C0E94921BE8
:1026D00091E0D82ED92601C0D12CCC2EC2948FE007
:1026E000C8228C2D90E0FC01EA5AFF4F0C94C72BB6
:1026F0008C2F807FCF70882311F0C295C07FDD239F
:1027000099F0CC2309F485C180E2800F883010F065
:10271000011104C08C2F0E949C1B03C08C2F0E94AF
:10272000AF1B0E94EA1B75C1802F0E94B912CC23F7
:1027300009F494C180E2800F883010F0011104C0C8
:102740008C2F0E94A21B03C08C2F0E94B51B0E94DD
:10275000EA1B84C18C2F807FCF70803211F0C2952C
:10276000C07F002319F00130C9F024C0DD2371F0CF
:10277000112341F0113031F40E94CF1B8C2B0E94A9
:10278000D71B6CC10E94CF1B8C2B0EC0112319F0DC
:10279000113009F463C10E94E01B1EC0DD2339F033
:1027A000123008F05BC18C2F0E94341357C11111F5
:1027B00055C112C0DD2319F01123A9F32AC1112339
:1027C00059F0093309F036C1FFEF27EE83E0F150ED
:1027D00020408040E1F72CC18C2F0E943B133EC16A
:1027E0008C2F86958695837019F0813061F036C103
:1027F000DD2321F0802F9C2F937002C080E090E0B9
:102800000E94A91033C1DD2321F0802F9C2F9370EB
:1028100002C080E090E00E94BF1028C1802FDD231D
:1028200019F00E94242102C00E948C210E941122D2
:102830001DC18C2F837009F045C0D11113C1402FE9
:10284000429546954770440F440F602F6F70862F56
:1028500090E0A0E0B0E0042E04C0880F991FAA1FEA
:10286000BB1F0A94D2F704FF10C00FE010E020E075
:1028700030E004C0000F111F221F331F4A95D2F70A
:10288000009510952095309503C000E010E0980168
:10289000C695C695C370BC01CD01602B712B822BF0
:1028A000932BC23049F058F4C13019F00E94D71967
:1028B000D9C00E94C519D6C00E94E919D3C00E9490
:1028C000C319D0C0DD2319F08C2F817001C086950B
:1028D000882309F4C7C0402F429546954770440F9E
:1028E000440F602F6F70862F90E0A0E0B0E0042EC0
:1028F00004C0880F991FAA1FBB1F0A94D2F704FFB8
:1029000010C00FE010E020E030E004C0000F111F05
:10291000221F331F4A95D2F70095109520953095C8
:1029200003C000E010E09801C695C695C370BC01D5
:10293000CD01602B712B822B932BC23049F058F4C0
:10294000C13019F00E949C1A8DC00E948A1A8AC058
:102950000E94AE1A87C00E94FD1984C0CF70DD238B
:1029600039F08C2F0E94231A802F0E9434137AC0D2
:10297000802F0E943B138C2F0E94441A73C0023F89
:10298000F9F028F4003F41F0013F99F03EC0033FC9
:10299000F1F0043F31F139C0DD2339F011115EC08F
:1029A0008C2F8F710E94691A59C0123008F056C0DE
:1029B000F7CFDD2339F08C2F8F710E94231A4EC080
:1029C000DD23C9F38C2F8F710E94441A47C0DD2389
:1029D00029F08C2F8F710E940E1A40C00E94091A94
:1029E0003DC0DD2349F0CF718C2F0E94231A63E094
:1029F0008C2F0E941F1C32C081E00E94341C1230B8
:102A000068F182E00E94341C29C0DD2331F01123DB
:102A100091F2802F0E940F1221C0112399F20933E5
:102A200049F49FEFE7EEF3E09150E040F040E1F72A
:102A300000C00000802F0E94B91210C04C2F4F70B0
:102A4000602FC7010E941E090E9434190FC04C2F2D
:102A50004F70602FC7010E94210908C088EF8C0DBC
:102A6000843020F40E943A100E941509DD20C9F03C
:102A70000E948E1B80FD15C0F70112820E94881BE8
:102A80000E94231AC7010E9472150E94881BDF91C1
:102A9000CF911F910F91FF90EF90DF90CF900C940A
:102AA000441ADF91CF911F910F91FF90EF90DF902B
:102AB000CF9008950F931F93CF93DF93EC0168811C
:102AC00079818A810E94651B8C010E94C01A0E9434
:102AD000B119B801CE010E944213DF91CF911F912D
:102AE0000F910895CF93DF93EC01988189812B8119
:102AF0003C81232B31F08F3F31F481E09F3F19F46B
:102B000003C081E001C080E080FD19C0CE010E94B9
:102B1000A80881110CC00E94921B882381F08A8131
:102B2000882369F082E0DF91CF910C94341CCE01B0
:102B30000E945A15CE01DF91CF910C947108DF915C
:102B4000CF910895882321F00E94AF1B0C94EA1BBB
:102B50000895882321F00E94B51B0C94EA1B089568
:102B60000E94BC1B0E94CC1B0E94EA1B0E94C42333
:102B70000E94112280E090E00E94A91080E090E085
:102B80000C94BF1080910001909101010E94061EDB
:102B90000C94B0150E94AC1B0C94C215E92FE29561
:102BA000EF704E2F50E0FA013297EE30F105B0F49D
:102BB000EA59FF4F0C94C72B803F91F018F4883EE0
:102BC00068F40EC0843F51F40BC0883E48F0813F4A
:102BD00029F406C093FB882780F9089580E00895C2
:102BE00081E008950E945A1B0E94CE150895CF934C
:102BF000DF9300D000D01F92CDB7DEB70F900F90BB
:102C00000F900F900F90DF91CF910895CF93DF93A6
:102C100000D000D000D0CDB7DEB726960FB6F8941E
:102C2000DEBF0FBECDBFDF91CF9108951F93CF932D
:102C3000DF93C091FF0116E080910002C81799F060
:102C4000D0E01C9FF0011D9FF00D1124EF5FFD4FA0
:102C50004081518162817381848195810E94061631
:102C60002196C770E9CFDF91CF911F9108954091D0
:102C7000310250913202609133027091340280919E
:102C80003502909136020C9406160F931F93CF9342
:102C9000DF938091360282958F7009F05DC080913C
:102CA0003302882309F458C08091FF01109100027B
:102CB0006091310270913202C0913402D09135029C
:102CC00091E06F3F09F090E0292F06E0811709F4A9
:102CD00043C0209721F07F3F21F030E003C031E076
:102CE00001C0322F90E030FD34C0089FF001099FF1
:102CF000F00D1124DF01AF5FBD4F11963C9111978C
:102D0000371327C03C91361324C012963C9112977A
:102D100031111FC013964D915C9114974C1B5D0BA4
:102D2000483C5105B0F4809136028F7080618093E9
:102D30003602EA5FFD4F80818F708061808381E37E
:102D400092E00E947215DF91CF911F910F910C9428
:102D5000161601968770BACFDF91CF911F910F9110
:102D600008959F92AF92BF92CF92DF92EF92FF921F
:102D70000F931F93CF93DF93CDB7DEB761970FB655
:102D8000F894DEBF0FBECDBF8C0185E0F801DE01F7
:102D90001D9601900D928A95E1F7F80140815181CD
:102DA000E2809091310260913202209134023091A0
:102DB00035022115310531F06F3F31F481E09F3F3D
:102DC00019F403C081E001C080E0F82FF1709F2E5C
:102DD00080FD46C1F801A380B48081E3C82E82E063
:102DE000D82EF0903302F501E21BF30BFF2009F41B
:102DF000DFC080913602E83CF10508F09BC0282F27
:102E0000207F09F052C0561313C0491311C0FE2C85
:102E1000E1100EC08F708061809336020E943716D9
:102E2000C6010E94721580913602F801858358C14F
:102E3000AB2831F05F3F31F481E04F3F19F403C01C
:102E400081E001C080E080FD03C081E08E2502C0EA
:102E500080E090E0F82FF170FF2E80FF1CC0809181
:102E6000FF012091000236E0821709F417C190E0BB
:102E7000389FF001399FF00D1124EF5FFD4F618104
:102E8000561306C06081461303C06281E61203C078
:102E900001968770E9CFFE2CEE2009F421C18091C4
:102EA00036028160809336025AC0561306C0491319
:102EB00004C0E11002C0F8019FC04D875E878D8578
:102EC0009E850E94F215882379F1EE2069F1209108
:102ED0003602822F82958F7090E0029774F0809175
:102EE00031029091320298878F831986BB86AA8619
:102EF0002C87CE0107960E94721586E0F801A1E3A7
:102F0000B2E001900D928A95E1F70E9445160E9469
:102F100037160DC0561729F14D875E878D859E8522
:102F20000E94F21581112CC0C8010E947215FF2465
:102F3000F394D6C0282F207F69F77A2DB98AA88A02
:102F40006E2D89890E94F71581E392E00E94721527
:102F500086E0F60111928A95E9F70E943716F12C66
:102F6000BFC04913D9CFE110D7CFF8018583C8017D
:102F70000E94721586E0F60111928A95E9F7B0C0B9
:102F8000EE2091F220913602822F82958F7090E090
:102F900002970CF4B2CF80913102909132029A8361
:102FA00089831B82BD82AC822E83CE010196A3CF82
:102FB000E83CF10508F047C0FE2CEE2009F4B4CF40
:102FC000561330C049132EC02091360220FD21C077
:102FD000822F82958F70482F50E041155105C9F01E
:102FE000F80125834F30510541F08F5F982F92955E
:102FF000907F822F8F70892B8583C8010E94721564
:1030000086E0F801A1E3B2E001900D928A95E1F724
:1030100042C086E0F801A1E3B2E001900D928A95EA
:10302000E1F75EC04D875E878D859E850E94F21513
:10303000811163CF80913602816080933602C8018E
:103040000E9472154DC07A2DB98AA88A6E2D898981
:103050000E94F71586E0F60111928A95E9F71BC0E8
:10306000EE2009F461CF4D875E878D859E850E9495
:10307000F215F82E882309F457CF86E0F801A1E372
:10308000B2E001900D928A95E1F781E392E00E940F
:1030900009120E9445160E94371622C04D875E878E
:1030A0008D859E850E945A1B292F22952F702230D4
:1030B00028F49F7039F0811105C00BC0243028F42A
:1030C0009F7049F4805E883020F0C8010E9472151C
:1030D0009F2CF92C05C0F8019581907F99F7F9CFC5
:1030E0008F2D61960FB6F894DEBF0FBECDBFDF9176
:1030F000CF911F910F91FF90EF90DF90CF90BF90F5
:10310000AF909F90089588EC90E008951F93CF931F
:10311000DF93CDB7DEB72C970FB6F894DEBF0FBEA6
:10312000CDBF4F83588769877A878B879C87CE016D
:1031300007960E94B1168823D1F09F8188852A8541
:103140003B85232B31F08F3F31F481E09F3F19F411
:1031500003C081E001C080E080FD47C04F815885F9
:1031600069857A858B859C850E9406163EC086E01F
:10317000FE013796DE01119601900D928A95E1F7D6
:10318000FF81E8856A857B856115710531F0EF3F28
:1031900031F481E0FF3F19F403C081E001C080E019
:1031A00080FD23C02091000230E0C90101968770A4
:1031B00099274091FF0150E084179507F1F1F983B9
:1031C000EA837D836C8396E0929FD001939FB00D3C
:1031D0001124AF5FBD4FFE01319601900D929A957B
:1031E000E1F7809300020E94161616E08091FF011D
:1031F00090910002891771F1189FC00111248F5F0F
:103200009D4F0E94B116882329F1E091FF011E9F76
:10321000F0011124EF5FFD4F408151816281738184
:10322000848195810E9406168091FF0190E00196AD
:10323000877099278093FF01D9CF0E94CA151092F9
:1032400000021092FF01E1E3F2E086E0DF011D924F
:103250008A95E9F72C960FB6F894DEBF0FBECDBF66
:10326000DF91CF911F910895EF92FF920F931F93DB
:10327000CF93DF938C01892B09F46CC0F12CEE24E1
:10328000E394E8012196F8018491843740F4843076
:1032900008F051C0813081F0823019F15BC0853770
:1032A00009F444C0A8F19CE7980F903708F052C089
:1032B0008F770E94B91241C00E5F1F4FFE018491AB
:1032C00090E2980F983050F48770FE2D01C0FF0FE8
:1032D0008A95EAF78F2F0E94BF1B14C00E940F121D
:1032E0002DC00E5F1F4FFE01849190E2980F983021
:1032F00060F48770FE2D01C0FF0F8A95EAF78F2FCB
:103300000E94C51B0E94EA1B19C00E94B91216C078
:103310000E5F1F4FFE01C491CC2381F08FE99FE027
:103320000197F1F700C00000C150F6CF0E5F1F4FAC
:10333000FE01F49003C00E940F128E018F2D88238E
:1033400009F49FCFEFE9FFE03197F1F700C00000EB
:103350008150F5CFDF91CF911F910F91FF90EF90AA
:103360000895089508950C94B2190C94B3190E940D
:10337000B5196093720270937302809374029093F4
:1033800075020C94B0150C94B7190F931F9300910C
:103390007202109173022091740230917502602BB9
:1033A000712B822B932B1F910F910C94B7190F93B4
:1033B0001F93009172021091730220917402309158
:1033C000750260237123822393231F910F910C9424
:1033D000B7190F931F9300917202109173022091FD
:1033E00074023091750260277127822793271F91FD
:1033F0000F910C94B7190C94B2190E94FB196093A9
:103400006E0270936F0280937002909371020C941D
:10341000B01560E070E0CB010C94FD190F931F9381
:1034200041E050E060E070E08A019B0104C0000FC1
:10343000111F221F331F8A95D2F7C901B8011F91AE
:103440000F910C94FD190F931F9341E050E060E041
:1034500070E004C0440F551F661F771F8A95D2F78E
:1034600080916E0290916F02A0917002B0917102F2
:103470008A019B01082B192B2A2B3B2BC901B80170
:103480001F910F910C94FD190F931F9341E050E091
:1034900060E070E004C0440F551F661F771F8A95D7
:1034A000D2F7409550956095709580916E029091FD
:1034B0006F02A0917002B09171028A019B010823F2
:1034C00019232A233B23C901B8011F910F910C94A2
:1034D000FD190F931F9341E050E060E070E004C0DD
:1034E000440F551F661F771F8A95D2F780916E0291
:1034F00090916F02A0917002B09171028A019B01BC
:10350000082719272A273B27C901B8011F910F91C6
:103510000C94FD190F931F9300916E0210916F028E
:103520002091700230917102602B712B822B932BB2
:103530001F910F910C94FD190F931F9300916E0230
:1035400010916F02209170023091710260237123FB
:10355000822393231F910F910C94FD190F931F93B6
:1035600000916E0210916F022091700230917102F1
:1035700060277127822793271F910F910C94FD19C3
:1035800008952EE0929F800D1124E82FE695E69590
:10359000E695877051E001C0550F8A95EAF785E0FE
:1035A000E89FF0011124E95CFD4F20E030E070E07D
:1035B0004081CB01022E02C0969587950A94E2F7CE
:1035C0008170819584278523842781932F5F3F4FC6
:1035D0002530310569F708952EE0929F800D112462
:1035E000682F669566956695982F977085E0689F19
:1035F000B001112440E050E080E0FB01E40FF51F32
:10360000E95CFD4F208130E0092E02C036952795F8
:103610000A94E2F721703327042E01C0220F0A9486
:10362000EAF7822B4F5F5F4F4530510531F7089520
:10363000BF92CF92DF92EF92FF920F931F93CF939F
:10364000DF938C01C0906E02D0906F02E090700208
:10365000F09071028091720290917302A0917402B5
:10366000B0917502C82AD92AEA2AFB2ACFE1D0E014
:10367000D701C6010C2E04C0B695A79597958795DE
:103680000A94D2F780FD04C0219790F7B12C07C0AF
:10369000BC2EB8018C2F0E943D090197A9F38B2DF8
:1036A000DF91CF911F910F91FF90EF90DF90CF901E
:1036B000BF900895CF93DF93EC010E94181BBE01C9
:1036C0000E943D09DF91CF9108951F93CF93DF931F
:1036D000EB019091FE01992321F0CB010E945A1B2E
:1036E00013C0882349F0CB010E94181B182F682FA4
:1036F000CE010E94C11A04C0CB010E94EC1A182FFF
:10370000BE01812F0E943D09DF91CF911F91089545
:1037100080917602859585958595089580917602AC
:103720008770089590917602977081E009F480E0A7
:10373000089580919A02089590919A02892B80931E
:103740009A020895809590919A02892380939A0213
:10375000089580939A02089510929A020895909184
:103760009902892B809399020895809590919902EE
:103770008923809399020895109299020895909157
:103780009802892B809398020895809590919802D1
:103790008923809398020895109298020895809149
:1037A0007702089508950C94D21B0C94D31B90912A
:1037B0007702981721F0809377020C94D51B089517
:1037C00080917702882329F01092770280E00C9490
:1037D000D51B0895E0910001F091010180919A02BA
:1037E0008083E0910001F091010190818091990224
:1037F000892B8083E0910001F091010190818091FB
:103800009802892B808380917702882381F0E09150
:103810000001F09101019081892B8083809100014A
:10382000909101010E94381D81110E94E01B80913E
:103830000001909101010C9446100C94D21B98E069
:10384000899F90011124262B209376020E94231A2F
:10385000809176028595859585950C941D1C109216
:10386000760280E00C941D1C2091760280958223C4
:1038700080937602982F977079F430E0482F082EC5
:10388000000C550B2417350739F0859585958595DE
:103890000E94441A0C942F1C0895909385018093E4
:1038A000840108958295982F937344E0949F90012A
:1038B00011248C7C86958695282B822F8575880F00
:1038C0002A7A2695822B0895CF93DF93D92F0E94D1
:1038D000521CC82F8D2F0E94521C2C2F30E0322FEB
:1038E0002227A901482BCA01DF91CF91089580E0DA
:1038F00090E00E94EF2B21E08C3E9E4F09F020E0EB
:10390000822F089582E090E00C94E72B682F82E0EC
:1039100090E00C94F52B83E090E00C94E72B682F5B
:1039200083E090E00C94F52BCF9384E090E00E942C
:10393000E72BC82F81E290E00E94E72B2C2F30E08C
:10394000A901582BCA01CF910895CF93C92F682F91
:1039500084E090E00E94F52B6C2F81E290E0CF9103
:103960000C94F52B86E090E00C94E72B682F86E012
:1039700090E00C94F52BAB01BC018FE090E00C942F
:10398000072CAB01BC0183E190E00C94072C60E0B4
:1039900070E0CB010C94C11C60E070E0CB010E9490
:1039A000BB1C0C94C71C6CEE7EEF80E090E00E9484
:1039B000132C60E082E090E00E94F52B60E083E051
:1039C00090E00E94F52B10927202109273021092F6
:1039D00074021092750260E084E090E00E94F52B82
:1039E00060E081E290E00E94F52B60E085E090E0ED
:1039F0000E94F52B60E086E090E00E94F52B6FEFCF
:103A000087E090E00E94F52B40E050E0BA0188E0AA
:103A100090E00E94072C60E08DE090E00E94F52B82
:103A200040E050E0BA0188E190E00E94072C60E09D
:103A300087E190E00E94F52B40E050E0BA018CE174
:103A400090E00E94072C60E080E290E00E94F52B5D
:103A500040E050E0BA0188E190E00E94072C0C940D
:103A6000CC1C0C94D31C682F8EE090E00C94F52BAA
:103A7000FC01329680911201882331F08091DB02A3
:103A800087FF02C09EE101C096E080E0915028F0DF
:103A900021912223D9F38F5FF9CF0895662351F145
:103AA000209112012223E9F02091DB0227FF19C0A7
:103AB000462F4695469546954E31E0F4677021E0D5
:103AC00030E002C0220F331F6A95E2F7FC01E40FD9
:103AD000F11D828190E02823392381E0232B69F4B2
:103AE00009C0FC01329608962191621729F0E81767
:103AF000F907D1F780E0089581E008959C01FC0169
:103B000032969FEF80E04191461789F09F3F19F46C
:103B1000411101C0982F8F5F8630A9F79F3F39F080
:103B2000F901E90FF11D97FDFA9562830895089553
:103B30009C012A5F3F4FFC014281461301C0128263
:103B4000019682179307B9F70895262F2695269593
:103B500026952E3170F4FC01E20FF11D677021E013
:103B600030E001C0220F6A95EAF78281282B228378
:103B7000089580919B0280FF0CC01F926F938CE789
:103B800094E09F938F930E9471040F900F900F9079
:103B90000F900895262F2695269526952E3178F498
:103BA000FC01E20FF11D677021E030E001C0220F3F
:103BB0006A95EAF7209582812823228308958091CF
:103BC0009B0280FF0CC01F926F938EE594E09F9341
:103BD0008F930E9471040F900F900F900F90089593
:103BE00020911201222329F02091DB0227FD0C9461
:103BF000A51D0C947E1D20911201222329F02091F5
:103C0000DB0227FD0C94CA1D0C94981D2091120113
:103C1000FC013296222331F08091DB0287FF02C043
:103C20008EE101C086E0DF011D928A95E9F70895D3
:103C300008950C94181ECF930E94AD040E940605AF
:103C40000E94191EC0E08C2F0E94A005892B29F428
:103C5000CF5FC630C1F780E001C081E0CF91089509
:103C60000C94181E0C94301E0E94321E8091E102AA
:103C7000843061F110929C0220E488E190E00FB65C
:103C8000F894A895809360000FBE2093600080E0B8
:103C90000E94A70C80E00E9415090E94321E83B783
:103CA000817F846083BF83B7816083BF7894889568
:103CB00083B78E7F83BF0FB6F894A895809160007C
:103CC000886180936000109260000FBE08950C948C
:103CD000181E0E94CA150E942C0B0E943A100E94C6
:103CE00015090C94671E1F920F920FB60F921124A4
:103CF0008F939F93AF93BF9380919C02811113C0C8
:103D00008091D7029091D802A091D902B091DA02A5
:103D10004196A11DB11D8093D7029093D802A09324
:103D2000D902B093DA02BF91AF919F918F910F901A
:103D30000FBE0F901F90189582E084BD93E095BD53
:103D40009AEF97BD80936E0008952FB7F8948091F5
:103D5000D7029091D802A091D902B091DA022FBF78
:103D600008959C014FB7F8948091D7029091D802A2
:103D7000A091D902B091DA024FBF821B930B089534
:103D800078941F920F920FB60F9211248F939F93E6
:103D9000AF93BF938091D7029091D802A091D9029E
:103DA000B091DA020196A11DB11D8093D7029093C4
:103DB000D802A093D902B093DA02BF91AF919F913C
:103DC0008F910F900FBE0F901F90189581E08093F8
:103DD000E00080E28093D8001092C9008FE19EE459
:103DE0000197F1F700C0000087E090EBDC018093C1
:103DF000EA029093EB02A093EC02B093ED029CE0F8
:103E000088E10FB6F894A895809360000FBE909358
:103E10006000FFCFAF92BF92CF92DF92EF92FF92FE
:103E20000F931F93CF93C0E0CC24C394D12CE82EE2
:103E3000F12C8C2F0E94A0055C0100E010E0C6016F
:103E4000002E02C0880F991F0A94E2F78A219B2155
:103E5000892B31F40F5F1F4F0E30110581F70AC017
:103E6000602F7C2F80E00E942209E816F90691F766
:103E700081E004C0CF5FC630E1F680E0CF911F91B2
:103E80000F91FF90EF90DF90CF90BF90AF9008958B
:103E9000CF93C82F8CE20E940A1F882321F08C2F19
:103EA000CF910C940A1F80E0CF910895CF930E9488
:103EB000771C811102C00E94311D81EA94E00E94AA
:103EC000D803C5E6C15049F00E9406058FE39CE97E
:103ED0000197F1F700C00000F5CF8AE994E00E9455
:103EE000D80389E20E94481F81112AC18AE20E94F8
:103EF000481F81110E94311D85E00E94481F8111D9
:103F00000E94E61E0E94821C80939B0287E00E9412
:103F1000481F8823A9F18BE10E94481F882351F094
:103F200080919B0281FB222720F991E0922790FB50
:103F300081F90EC08EE00E94481F882361F08091B5
:103F40009B0282FB222720F991E0922790FB82F9C5
:103F500080939B0215C080E10E94481F90919B02B4
:103F6000882341F093FB222720F981E0822780FB00
:103F700093F904C0892F809580FB90F990939B0260
:103F800080919B020E94861C0E94941C9093DC02EC
:103F90008093DB0280EE0E94481F882341F08091CD
:103FA000DB02982F909590FB80F98093DB0289E3E8
:103FB0000E94481F882359F08091DB0281FB222751
:103FC00020F991E0922790FB81F98093DB0282EE49
:103FD0000E94481F882359F08091DB0282FB222730
:103FE00020F991E0922790FB82F98093DB0286EE24
:103FF0000E94481F882359F08091DB0283FB22270F
:1040000020F991E0922790FB83F98093DB0283EE05
:104010000E94481F882359F08091DB0284FB2227ED
:1040200020F991E0922790FB84F98093DB0285E3ED
:104030000E94481F882359F08091DB0285FB2227CC
:1040400020F991E0922790FB85F98093DB0281E3D0
:104050000E94481F882359F08091DB0286FB2227AB
:1040600020F991E0922790FB86F98093DB0281E1B1
:104070000E94481F882359F08091DB0287FB22278A
:1040800020F991E0922790FB87F98093DB028091E1
:10409000DB029091DC020E94A51C87E20E94481F6F
:1040A000C82F8EE10E94481F8111C2608FE10E94DB
:1040B000481F8111C46080E20E94481F8111C860BE
:1040C00081E20E94481F8111C06182E20E94481F64
:1040D0008111C06283E20E94481F8111C06484E2A2
:1040E0000E94481F882311F0C06802C0CC2329F029
:1040F0008C2F0E948F1C6C2F03C00E948B1C682F7A
:1041000070E080E090E00E94C31960916E027091AF
:104110006F0280917002909171020E94FB198FE0F2
:104120000E94481F882319F081E00E94331D85E119
:104130000E94481F882321F080E0CF910C94331D0A
:10414000CF9108958091A50280FF0BC06091060178
:1041500085E0689FB0011124759567957595679501
:104160002BC081FF09C06091060185E0689FB00106
:1041700011247595679520C082FF07C060910601E4
:1041800085E0689FB001112417C09091A402992383
:10419000D1F060910501961788F72091060185E01E
:1041A000289F90011124929FA001939F500D1124EC
:1041B00070E0CA010E94912B6038710540F46115CE
:1041C000710519F406C065E070E0862F08958FE749
:1041D000089581E008958091A50280FF08C0609154
:1041E000030170E0759567957595679521C081FF0E
:1041F00006C06091030170E07595679519C082FF54
:1042000004C06091030170E010C09091A302992353
:1042100099F0609102019617A0F780910301899FA0
:10422000C001112470E00E94912B6038710540F4A8
:104230006115710519F406C061E070E0862F0895DC
:104240008FE7089581E00895803F21F40E94A22025
:10425000819504C0813F29F40E94A2208093A90285
:104260000895823F21F40E94A220819504C0833FDB
:1042700029F40E94A2208093A8020895893F19F48E
:104280000E94EB2005C08A3F31F40E94EB2081950B
:104290008093AA0208958B3F21F40E94EB20819520
:1042A00004C08C3F29F40E94EB208093AB02089558
:1042B000843F21F48091A702816017C0853F21F4DB
:1042C0008091A702826011C0863F21F48091A702ED
:1042D00084600BC0873F21F48091A702886005C0ED
:1042E000883F31F48091A70280618093A7020895EE
:1042F0008D3F21F48091A50281600BC08E3F21F497
:104300008091A502826005C08F3F29F48091A502AB
:1043100084608093A5020895803F39F48091A902BA
:1043200087FF6AC01092A90267C0813F29F480917B
:10433000A9021816BCF360C09091A802823F29F42C
:1043400097FF5AC01092A80257C0833F19F419165C
:10435000CCF352C09091AA02893F31F419160CF0A7
:104360004BC01092AA0248C08A3F19F497FF44C07C
:10437000F8CF8B3F39F48091AB0287FF3DC010929C
:10438000AB023AC08C3F29F48091AB021816BCF303
:1043900033C0843F21F48091A7028E7F17C0853FF0
:1043A00021F48091A7028D7F11C0863F21F4809176
:1043B000A7028B7F0BC0873F21F48091A702877FE4
:1043C00005C0883F31F48091A7028F7E8093A702B9
:1043D00013C08D3F21F48091A5028E7F0BC08E3FCC
:1043E00021F48091A5028D7F05C08F3F29F4809133
:1043F000A5028B7F8093A5028091A802811106C03F
:104400008091A902811102C01092A4028091AA0297
:10441000811106C08091AB02811102C01092A302EB
:10442000089580919B0283FF7EC08DED94E00E94F1
:10443000D8038091A7021F928F9388ED94E09F93F9
:104440008F930E94710486ED94E00E94D8038091BE
:10445000A802282F082E000C330B3F938F9383ED77
:1044600094E09F938F930E94710481ED94E00E94E9
:10447000D8038091A902282F082E000C330B3F93FC
:104480008F938EEC94E09F938F930E9471048CEC39
:1044900094E00E94D8038091AA02282F082E000CD5
:1044A000330B3F938F9389EC94E09F938F930E94FB
:1044B000710487EC94E00E94D8038091AB02282F0E
:1044C000082E000C330B3F938F9384EC94E09F9362
:1044D0008F930E94710481EC94E00E94D803809134
:1044E000A4021F928F938EEB94E09F938F930E9470
:1044F00071048CEB94E00E94D8038091A5021F9276
:104500008F9389EB94E09F938F930E94710486EBC5
:1045100094E00E94D8038DB79EB74C960FB6F894DE
:104520009EBF0FBE8DBF0E94A51E2091A802211123
:1045300004C02091A902222321F09093A20280932B
:10454000A1022091AA02211104C02091AB022223D2
:1045500021F09093A00280939F0286EA92E00C944F
:104560009B10EF92FF920F931F93CF93DF9300D096
:1045700000D000D0CDB7DEB786E0E6EAF2E0DE019B
:10458000119601900D928A95E1F7E090A802F090C3
:10459000A9020091AA021091AB021092A8021092F7
:1045A000A9021092AA021092AB02E11003C0FF20F0
:1045B00009F45DC08091A1029091A2020E94B11EF7
:1045C000AC019091A402992339F02091070130E0C9
:1045D0002417350758F04BC020919E028AE0289F8F
:1045E000900111242417350718F041C09F3F19F09E
:1045F0009F5F9093A402EE2061F00E94A2201E14FF
:1046000014F09FEF01C091E0989F902D112490939A
:10461000A802FF2061F00E94A2201F1414F09FEF57
:1046200001C091E0989F902D11249093A9023091A0
:10463000A8023323E1F02091A9022223C1F045EB27
:104640003403C0011124992319F09093A80203C0E8
:1046500081E08093A80235EB2303C0011124992344
:1046600019F09093A90203C081E08093A90201117F
:1046700003C0112309F45DC080919F029091A002B4
:104680000E94B11EAC019091A302992339F02091B0
:10469000040130E02417350758F04BC020919D02EB
:1046A0008AE0289F900111242417350718F041C093
:1046B0009F3F19F09F5F9093A302002361F00E9437
:1046C000EB20101614F09FEF01C091E0989F902D01
:1046D00011249093AA02112361F00E94EB2011167D
:1046E00014F09FEF01C091E0989F902D11249093BA
:1046F000AB023091AA023323E1F02091AB022223D6
:10470000C1F045EB3403C0011124992319F09093B3
:10471000AA0203C081E08093AA0235EB2303C00103
:104720001124992319F09093AB0203C081E0809388
:10473000AB028091A80281110BC08091A902811166
:1047400007C08091AA02811103C08091AB02811140
:104750000E941122EB82FC820D831E8386E0FE0103
:104760003196A6EAB2E001900D928A95E1F726967D
:104770000FB6F894DEBF0FBECDBFDF91CF911F9172
:104780000F91FF90EF900895E6EAF2E086E0DF01F6
:104790001D928A95E9F71092A4021092A30210923A
:1047A000A50208958091CF0208959FB7F8941092C2
:1047B000AE029FBF9091E102943009F057C09091F2
:1047C000E9009F703091EC00232F217030FD20E82C
:1047D000922B23E02093E9002091EB0020FF43C0BF
:1047E0002091EE0027FF3FC02091AC02222321F050
:1047F0002091E80025FF37C01092AC0226E03091EE
:10480000E80035FD15C03091E102343061F530919A
:10481000EB0035FD28C0215021F481E08093AC02EB
:1048200022C0EFE9FFE03197F1F700C00000E7CFC9
:104830008093F1008091E80085FD0AC08091E80036
:1048400080FFFCCF8091E8008E778093E80006C05F
:104850008FB7F89421E02093AE028FBF9F709093A2
:10486000E90080E008959F709093E9008FEF08952C
:10487000CF93DF9300D01F92CDB7DEB79091E102C6
:10488000943019F589837B836A8382E08093E90001
:104890008FEF9091E800815095FD06C095ED9A95B7
:1048A000F1F700008111F5CF8091E80085FF0DC080
:1048B00040E050E063E070E0CE0101960E94C42623
:1048C0008091E8008E778093E8000F900F900F9012
:1048D000DF91CF910895BC0184E00C943824BC0191
:1048E00083E00C94382422E02093E9002FEF3091EC
:1048F000E800215035FD06C035ED3A95F1F700008E
:104900002111F5CF2091E80025FF0BC040E050E0D9
:1049100066E070E00E94C4268091E8008E77809364
:10492000E8000895CF93DF9320911201222339F0FC
:104930002091DB0227FF03C060E222E002C068E0B2
:1049400021E02093E9002FEF3091E800215035FD60
:1049500006C035ED3A95F1F700002111F5CF209111
:10496000E80025FF1DC0EC0180911201811105C0F6
:1049700040E050E068E070E003C070E040E050E0EC
:10498000CE010E94C4268091E8008E778093E800D3
:1049900080E2FE01AFEAB2E001900D928A95E1F764
:1049A000DF91CF91089585E295E00E94D803809130
:1049B000E002811109C00E9455280E94B22880910E
:1049C000E20084608093E200089581E295E00E9415
:1049D000D8031092E00208958DE195E00C94D8037D
:1049E00089E195E00C94D80385E195E00E94D80315
:1049F0000C94691E2091AD022F5F822F62E30E940A
:104A0000712B992319F02093AD0208951092AD02F5
:104A10008091AE02882371F18091E102843041F5EA
:104A20008091E9008F702091EC00922F917020FD11
:104A300090E8892B93E09093E9009091EB0090FF30
:104A400014C09091EE0097FF10C09091E80095FF80
:104A500003C01092F100F9CF9091E80090FF05C0DB
:104A60009091E8009E779093E8008F708093E90022
:104A70001092AE02089542E061EC81E00E94CE27E0
:104A800042E261EC82E00E94CE2742E261EC83E0E8
:104A90000C94CE278091E302833009F460C030F497
:104AA000813071F0823009F499C008958A3009F498
:104AB00085C08B3009F46BC0893009F0A7C020C0D5
:104AC0008091E202813A09F0A1C08091E800877FDD
:104AD0008093E8008091E6029091E702892B21F40F
:104AE00060E28FEA92E003C060E080E090E070E076
:104AF0000E940F278091E8008B778093E80008954B
:104B00008091E202813209F081C08091E6029091A9
:104B1000E702029708F07AC08091E800877F8093CF
:104B2000E8008091E80082FD05C08091E1028111DA
:104B3000F8CF6CC02091F3008091F20090E0922BAE
:104B4000029729F48091F1008B7F813021F48091CC
:104B5000F1008093CF028091E8008B7753C0809161
:104B6000E202813A09F052C08091E6029091E70298
:104B7000892B09F04BC08091E800877F8093E80083
:104B80008091E80080FFFCCF8091120136C08091B7
:104B9000E2028132D9F58091E6029091E702892BF9
:104BA000A9F58091E800877F8093E8000E940328A0
:104BB0008091E402809312010C94CA158091E20264
:104BC000813221F58091E800877F8093E8000E9480
:104BD00003288091E5028093D00208958091E2023B
:104BE000813AA1F48091E800877F8093E80080916A
:104BF000E80080FFFCCF8091D0028093F10080918B
:104C0000E8008E778093E8000C940328089584B719
:104C1000877F84BF0FB6F894A89580916000886163
:104C200080936000109260000FBE90E080E80FB6A5
:104C3000F89480936100909361000FBE0E94ED1084
:104C40000E9455280E94B2288091E20084608093DF
:104C5000E20085ED93E20E944D1C78940E94462B61
:104C60000E94F31088E091E00E94351084E095E006
:104C70000E94D8038091E102853089F480E095E0BC
:104C80000E94D8030E94341E8091DF02882391F392
:104C90000E941B1E882371F30E94AE26EBCF0E9458
:104CA00025110E94E1100E94E010E4CF0C945826D8
:104CB000292F332723303105C9F060F42130310525
:104CC00081F02230310509F041C08BE590E02BE7FF
:104CD00035E040C021323105E1F02232310531F1B9
:104CE00035C082E190E026ED35E034C0992781306F
:104CF000910549F028F0029749F5E9E2F5E005C091
:104D0000E7E7F5E002C0E3E5F5E0849190E09F017C
:104D100021C063307105D0F4660F771FFB01E258A4
:104D2000FE4F2081318189E090E014C0633071052D
:104D300068F4FB01EE0FFF1FE858FE4F2081318120
:104D4000FB01EB58FE4F808190E004C080E090E0D2
:104D500020E030E0FA0131832083089580E189BDAD
:104D600082E189BD09B400FEFDCF8091D8008F7D1E
:104D70008093D8008091E00082608093E000809171
:104D8000E00081FDFCCF0895CF92DF92EF92FF9279
:104D90000F931F93CF93DF93EC018B017A010E9455
:104DA0002228811133C0E114F10439F0F701808128
:104DB0009181081B190BC80FD91FC12CD12C0115CB
:104DC000110519F18091E80085FD16C08091E80079
:104DD0008E778093E800E114F10449F0F7018081B7
:104DE0009181C80ED91ED182C08285E00FC00E9479
:104DF0002228882321F30AC089918093F100015071
:104E00001109FFEFCF1ADF0ADACF80E0DF91CF91EF
:104E10001F910F91FF90EF90DF90CF900895209118
:104E2000E8023091E9022617370748F0611571054D
:104E300039F42091E8002E772093E80001C0B901F1
:104E4000FC0120E06115710579F18091E102882370
:104E5000F1F18530F1F18091E80083FD3CC0809153
:104E6000E80082FD2EC08091E80080FFEBCF20910A
:104E7000F3008091F20090E0922B6115710551F0E2
:104E80008830910538F421912093F1006150710927
:104E90000196F3CF21E0089709F020E08091E80027
:104EA0008E778093E800CECF2111CFCF0AC08091BA
:104EB000E102882361F0853061F08091E80083FD94
:104EC0000AC08091E80082FFF2CF80E0089582E07E
:104ED000089583E0089581E008952091E8023091DB
:104EE000E9022617370748F06115710539F420915A
:104EF000E8002E772093E80001C0B901FC0120E012
:104F00006115710591F18091E102882309F440C097
:104F1000853009F43FC08091E80083FD3DC0809159
:104F2000E80082FD2FC08091E80080FFE9CF20914A
:104F3000F3008091F20090E0922B6115710559F019
:104F40008830910540F424912093F100319661500E
:104F500071090196F2CF21E0089709F020E08091D5
:104F6000E8008E778093E800CBCF2111CCCF0AC028
:104F70008091E102882361F0853061F08091E80042
:104F800083FD0AC08091E80082FFF2CF80E008959F
:104F900082E0089583E0089581E00895982F973086
:104FA00068F59093E900981739F07091EC00209122
:104FB000ED005091F00003C0242F762F50E021FD2A
:104FC00002C09F5FECCF3091EB003E7F3093EB004F
:104FD0003091ED003D7F3093ED003091EB0031607A
:104FE0003093EB007093EC002093ED005093F000B1
:104FF0002091EE0027FDE5CF80E008958F7080932B
:10500000E90081E008958091E20287FF11C080915C
:10501000E80082FD05C08091E1028111F8CF11C046
:105020008091E8008B770BC08091E102882349F0E2
:105030008091E80080FFF8CF8091E8008E77809320
:10504000E80008952091E4003091E50095E6409154
:10505000EC00842F817040FF23C08091E80080FD28
:105060001DC08091E102882399F0853099F08091EC
:10507000EB0085FD11C04091E4005091E50024173C
:10508000350729F3915011F09A01E1CF84E008959A
:1050900082E0089583E0089581E0089580E0089516
:1050A0004091E80042FFDDCF08950E94C3280E948E
:1050B000CB28E0EEF0E0808181608083E8EDF0E0D5
:1050C00080818F77808319BCA7EDB0E08C918E7FB3
:1050D0008C9380818F7E80831092E00208950F93DD
:1050E0001F93CF93DF930E94C3280E94CB28C8ED63
:1050F000D0E088818F7788838881806888838881E1
:105100008F7D888319BC1092E1021092DD0210920B
:10511000DF021092DE0200EE10E0F80180818B7F4A
:10512000808388818160888342E060E080E00E9423
:10513000CE27E1EEF0E080818E7F8083E2EEF0E02A
:10514000808181608083808188608083F801808194
:105150008E7F8083888180618883DF91CF911F91CA
:105160000F910895E8EDF0E080818F7E8083E7ED78
:10517000F0E080818160808384E082BF81E0809361
:10518000E0020C946F28E8EDF0E080818E7F808350
:105190001092E20008951092DA001092E100089552
:1051A0001F920F920FB60F9211242F933F934F939C
:1051B0005F936F937F938F939F93AF93BF93EF937F
:1051C000FF938091E10082FF0BC08091E20082FF9B
:1051D00007C08091E1008B7F8093E1000E94FA2458
:1051E0008091DA0080FF1FC08091D80080FF1BC033
:1051F0008091DA008E7F8093DA008091D90080FF61
:105200000DC080E189BD82E189BD09B400FEFDCFFA
:1052100081E08093E1020E94D32405C019BC109262
:10522000E1020E94E5248091E10080FF19C0809195
:10523000E20080FF15C08091E2008E7F8093E20043
:105240008091E20080618093E2008091D8008062CA
:105250008093D80019BC85E08093E1020E94F0247D
:105260008091E10084FF30C08091E20084FF2CC077
:1052700080E189BD82E189BD09B400FEFDCF809146
:10528000D8008F7D8093D8008091E1008F7E80933D
:10529000E1008091E2008F7E8093E2008091E20045
:1052A00081608093E2008091DD02882311F084E028
:1052B00007C08091E30087FD02C081E001C083E068
:1052C0008093E1020E94F4248091E10083FF29C0D1
:1052D0008091E20083FF25C08091E100877F809369
:1052E000E10082E08093E1021092DD028091E10012
:1052F0008E7F8093E1008091E2008E7F8093E200B8
:105300008091E20080618093E20042E060E080E012
:105310000E94CE278091F00088608093F0000E9468
:10532000EC24FF91EF91BF91AF919F918F917F916D
:105330006F915F914F913F912F910F900FBE0F9002
:105340001F9018951F920F920FB60F9211242F9352
:105350003F934F935F936F937F938F939F93AF93FD
:10536000BF93CF93DF93EF93FF93C091E900CF708A
:105370008091EC00D82FD17080FDD0E81092E90028
:105380008091F000877F8093F00078940E94E62956
:105390001092E9008091F00088608093F000CD2B9E
:1053A000CF70C093E900FF91EF91DF91CF91BF9152
:1053B000AF919F918F917F916F915F914F913F91AD
:1053C0002F910F900FBE0F901F9018951F93CF93A2
:1053D000DF93CDB7DEB7AA970FB6F894DEBF0FBE46
:1053E000CDBFE2EEF2E08091F100819322E0EA3E4F
:1053F000F207C9F70E944A258091E80083FF2EC179
:105400008091E2029091E302492F50E04A30510529
:1054100008F024C1FA01EC58FF4F0C94C72B8038D8
:1054200021F0823809F01AC108C08091DE02909103
:10543000DF02992389F082600FC08091E6028F70AD
:10544000873008F00BC18093E9008091EB0085FB69
:10545000882780F91092E9009091E800977F909357
:10546000E8008093F1001092F100D1C0282F2D7F29
:1054700009F0F4C0882319F0823061F0EFC0809108
:10548000E402813009F0EAC0933009F080E08093B3
:10549000DF022EC08091E40281112AC08091E602D1
:1054A0008F702FEF280F263008F0D8C08093E900C6
:1054B0002091EB0020FF1CC0933021F48091EB0081
:1054C000806214C09091EB0090619093EB0021E01A
:1054D00030E0A90102C0440F551F8A95E2F74093BE
:1054E000EA001092EA008091EB0088608093EB0064
:1054F0001092E9008091E800877F8093E8000E9485
:105500000328ACC08111AAC01091E4021F778091DA
:10551000E3008078812B8093E3008091E800877F0F
:105520008093E8000E9403288091E80080FFFCCF70
:105530008091E30080688093E300111102C082E053
:1055400001C083E08093E10289C08058823008F076
:1055500085C08091E4029091E5028C3D53E095076F
:1055600079F583E08A838AE289834FB7F894DE0174
:10557000139620E03EE051E2E32FF0E05093570015
:10558000E49120FF03C0E295EF703F5FEF708E2F34
:1055900090E0EA3010F0C79601C0C0968D939D93BD
:1055A0002F5F243149F74FBF8091E800877F8093B8
:1055B000E8006AE270E0CE0101960E940F2716C053
:1055C0006091E6027091E702AE014F5F5F4F0E946B
:1055D0005626BC01892B09F441C09091E800977FC1
:1055E0009093E80089819A810E946D278091E8005C
:1055F0008B778093E80032C0803881F58091E80095
:10560000877F8093E8008091DD028093F100809194
:10561000E8008E7772CF811121C08091E4029091D1
:10562000E50299270297D4F48091E800877F809360
:10563000E8008091E4028093DD020E9403288091BB
:10564000DD02811106C08091E30087FD02C081E088
:1056500001C084E08093E1020E943B258091E80034
:1056600083FF0AC08091E800877F8093E8008091E3
:10567000EB0080628093EB00AA960FB6F894DEBF31
:105680000FBECDBFDF91CF911F910895CF93809131
:10569000E1028823A1F0C091E900CF709091EC0065
:1056A000892F817090FD80E8C82B1092E9008091CD
:1056B000E80083FD0E94E629CF70C093E900CF91F6
:1056C0000895DB018F939F930E94DC2BBF91AF91D4
:1056D000A29F800D911DA39F900DB29F900D11244C
:1056E0000895991B79E004C0991F961708F0961B3E
:1056F000881F7A95C9F780950895AA1BBB1B51E1B5
:1057000007C0AA1FBB1FA617B70710F0A61BB70B31
:10571000881F991F5A95A9F780959095BC01CD01D6
:10572000089597FB072E16F4009407D077FD09D053
:105730000E947D2B07FC05D03EF4909581959F4FEC
:105740000895709561957F4F0895A1E21A2EAA1BC6
:10575000BB1BFD010DC0AA1FBB1FEE1FFF1FA21721
:10576000B307E407F50720F0A21BB30BE40BF50B1E
:10577000661F771F881F991F1A9469F760957095A7
:10578000809590959B01AC01BD01CF010895EE0F6E
:10579000FF1F0590F491E02D0994A29FB001B39FE3
:1057A000C001A39F700D811D1124911DB29F700D2A
:1057B000811D1124911D08950E94CD2BA59F900D50
:1057C000B49F900DA49F800D911D11240895F99907
:1057D000FECF92BD81BDF89A992780B50895A8E1C2
:1057E000B0E042E050E00C941B2C262FF999FECF3C
:1057F00092BD81BDF89A019700B4021639F01FBA24
:1058000020BD0FB6F894FA9AF99A0FBE0895039640
:10581000272F0E94F62B0E94F52B252F0E94F62B96
:10582000242F0C94F62B0196272F0E94F62B0C9414
:10583000F52BDC01CB01FC01F999FECF06C0F2BDCE
:10584000E1BDF89A319600B40D9241505040B8F73E
:065850000895F894FFCF5B
:1058560078022808643C0714D223922473246F2408
:105866006B2401E200E900EA00B500B600B700CDFE
:10587600008301CC008A01920194012102230224B3
:10588600022502260227022A02B300B4006F007026
:1058960000818283E200E900EA00B500B600B700A5
:1058A600CD008301CC008A019201940121022302DA
:1058B60024022502260227022A02B300B4006F0042
:1058C600700081828340BC22C6060A06E8058D0563
:0458D600A605BF055F
:00000001FF
